:020000040800F2
:10000000904700209D010008E137000831320008C8
:1000100025360008910A0008554400080000000039
:10002000000000000000000000000000DB3A0008B3
:10003000FD0E0008000000001D380008F13B00081C
:10004000B7010008B7010008B7010008B7010008B0
:10005000B7010008B7010008B7010008B7010008A0
:10006000B7010008B7010008FF0E0008B70100083B
:10007000B7010008B7010008B7010008B701000880
:10008000B7010008B7010008B7010008B701000870
:10009000950A0008A10A0008AD0A0008050F00082B
:1000A000B7010008B7010008B7010008B701000850
:1000B000B7010008CD3C0008B7010008B7010008EF
:1000C000B7010008B7010008B7010008B701000830
:1000D000B7010008B701000809440008B70100088B
:1000E000B7010008B7010008B7010008B701000810
:1000F000B7010008D93C0008B7010008B7010008A3
:10010000B7010008B7010008B7010008B7010008EF
:10011000B7010008B7010008B7010008B7010008DF
:10012000B7010008B7010008B7010008B7010008CF
:10013000B70100080000000000000000B70100083F
:10014000B7010008B7010008B7010008B7010008AF
:10015000B7010008B7010008B7010008B70100089F
:10016000B7010008B7010008B7010008B70100088F
:10017000B7010008B70100080000000000000000FF
:10018000B7010008B7010008DFF80CD000F078FBD9
:1001900000480047854D00089047002006488047EA
:1001A00006480047FEE7FEE7FEE7FEE7FEE7FEE75C
:1001B000FEE7FEE7FEE7FEE7793C0008890100085C
:1001C0002DE9F05F0546002092469B46884606468C
:1001D000814640241BE0284641464746224600F01F
:1001E000F9F953465A46C01A914110D311461846A0
:1001F000224600F0E0F92D1A67EB01084F4622462F
:100200000120002100F0D7F917EB00094E41201E14
:10021000A4F10104DFDC484631462A464346BDE8E6
:10022000F09F40EA01039B0703D009E008C9121FB1
:1002300008C0042AFAD203E011F8013B00F8013BA0
:10024000521EF9D27047D2B201E000F8012B491ECC
:10025000FBD270470022F6E710B513460A46044663
:100260001946FFF7F0FF204610BD2DE9FE4F8046EE
:1002700081EA0300C00F0C46009021F0004123F0FA
:100280000045B8EB0200A94105D240462146904600
:100290001C460B46024623F00040104347D0270D72
:1002A000C7F30A00C3F30A510290401A0190402894
:1002B0006BDAC3F3130040F4801B0098924620B120
:1002C0000023D2EB030A63EB0B0B01985946C0F1F4
:1002D0004002504600F06FF906460D46504659461A
:1002E000019A00F087F910EB08006141002487EAC9
:1002F000115284EAE7731A4340D0009A62B3019A1C
:10030000012A4FEA075215DC001B61EB02014FF096
:10031000004202EA0752CDE90042001C41F580117B
:1003200032462B4600F0BEF903B0BDE8F08F4046E0
:100330002146F9E7001B61EB0201001C41F5801327
:1003400000185B412018A2F5001747EB030140EAB3
:10035000D570B6196D4111E06D084FEA360645EAD1
:10036000C0754FEA0752001B61EB0201001C41F50A
:10037000801149084FEA30000019514132462B469E
:1003800003B0BDE8F04F00F07EB9009801224000B4
:100390000023D0EB020263EBE073009821464FEAA2
:1003A000E074B8EB000061EB0401E9E783F000437F
:1003B0005BE781F0004158E72DE9FE4F81EA030435
:1003C00004F0004421F0004100944FF0000B23F0B2
:1003D000004350EA01045ED052EA03045BD0C3F349
:1003E0000A54C1F30A552C44A4F2F3340194A0FB3F
:1003F0000254C1F3130141F48011C3F3130343F416
:10040000801301FB024400FB034E840A970A44EA6E
:10041000815447EA8357A4FB076802958D0A05FBC0
:1004200007854FEA932C04FB0C542705029D4FEAE5
:10043000065847EA1637B5EB08056EEB070C870E32
:10044000920E47EA811742EA8312A7FB0201B6EB3C
:100450000B0164EB00042B0D43EA0C335E1844EBF4
:100460001C50DA465146E7FB0201C5F313044FEA7C
:100470000B3343EA14534FEA0432019C43EA060368
:10048000A4F10C040294009CCDE900B400F00AF938
:1004900003B0BDE8F08F00200146F9E7F0B4CA17B9
:1004A000CB0F50405140C61841F100054FEAC372CE
:1004B000314628004FF0960303D0B623F0BC00F07D
:1004C000B4B830460021F9E70EB540F2334102914D
:1004D0000021CDE900110A460B4600F0E3F803B015
:1004E00000BD70B5C1F30A5201F000450024C1F30C
:1004F000130140F2FF3341F480119A4202DA0020E6
:10050000014670BD40F233439A42A2F2334203DC0B
:10051000524200F05FF801E000F04DF82C43F0D0BB
:100520000023D0EB030063EB010170BD00F000423B
:1005300030F000400AD0C10D01F56071C0F3160023
:1005400042EA0151C20840071143704700200146AA
:10055000704701F0004330B421F0004150EA01023D
:1005600006D00A0DA2F56072C1F31301002A02DC65
:1005700030BC00207047440F44EAC104C100E018B9
:1005800030BC00EBC25000F047B830B50B46014616
:1005900000202022012409E021FA02F59D4205D322
:1005A00003FA02F5491B04FA02F52844151EA2F1CC
:1005B0000102F1DC30BD202A04DB203A00FA02F10E
:1005C000002070479140C2F1200320FA03F3194341
:1005D00090407047202A04DB203A21FA02F00021E3
:1005E000704721FA02F3D040C2F120029140084343
:1005F00019467047202A06DBCB17203A41FA02F051
:1006000043EAE07306E041FA02F3D040C2F120026F
:1006100091400843194670470029A8BF7047401C05
:10062000490008BF20F00100704710B4B0FA80FC08
:1006300000FA0CF050EA010404BF10BC704749B145
:10064000CCF1200421FA04F411FA0CF118BF0121B5
:1006500021430843A3EB0C01CB1D4FEA00614FEA95
:10066000102042BF002010BC704700EBC350104464
:100670000029A4BF10BC7047401C490008BF20F0EF
:10068000010010BC704710B5141E73F1000408DAA5
:10069000401C41F1000192185B411A4301D120F046
:1006A000010010BD2DE9F04D92469B4611B1B1FA03
:1006B00081F202E0B0FA80F220329046FFF77BFF31
:1006C00004460F4640EA0A0041EA0B0153465A46E7
:1006D000084313D0114653EA010019D0C8F1400273
:1006E0005046FFF777FF05460E46504659464246AC
:1006F000FFF761FF084305D0012004E0204639469A
:10070000BDE8F08D0020054346EAE0762C433743F0
:100710000A986305E40AA0EB08000022FD0A44EAF7
:1007200047540A3002D500200146E9E701051019B7
:100730006941DDE9084500196941BDE8F04DA2E7CE
:100740002DE9F04D81EA030404F0004B21F000454F
:1007500014464FF0000A23F0004150EA050220D071
:1007600054EA01021DD0C5F30A570246C5F313032C
:10077000C1F31300C1F30A5640F4801543F480130B
:10078000A7EB0608101BD64608F2FD3873EB0500F0
:1007900002D308F1010801E092185B41B8F1000FA3
:1007A00003DA00200146BDE8F08D00204FF48011EF
:1007B000064684460EE0171B73EB050705D3121B94
:1007C00063EB050306434CEA010C49084FEA30008D
:1007D00092185B4150EA0107EDD152EA030012D0B2
:1007E00082EA040083EA0501084305D0101BAB41EF
:1007F00006D20122002306E000224FF0004302E06F
:100800006FF0010253101AEB06004CEB085110EB8D
:100810000A0041EB0B01BDE8F04DFFF734BFC1F317
:100820000A52C1F3130140F2FF3341F480119A429E
:1008300002DA00200146704740F233439A42A2F2A6
:10084000334202DC5242FFF7C5BEFFF7B4BE0000E0
:1008500030B5041E71F1000404DB4FF00044404247
:1008600064EB0101141E73F1000405DB1C464FF01C
:100870000043524263EB0403994208BF904230BDEB
:10088000064C074D06E0E06840F0010394E80700DD
:1008900098471034AC42F6D3FFF77AFC844F000837
:1008A000A44F0008464910B54A6822F440324A6015
:1008B0004A6843681A434A6001684A6822F48072B1
:1008C0004A6001684A68036942EA03224A60016893
:1008D0004A6822F040724A6001684A6883681A4395
:1008E0004A6001688A6822F400628A6001688A6846
:1008F000C3681A438A60816A6FF07062D1420168EE
:100900008A6822F070628A6001688A680CD0836A03
:100910001A438A6001688A6822F040528A6001683E
:100920008A68C36A1A4301E022F040528A60016873
:100930008A6822F002028A6001688A68037E42EABD
:1009400043028A6090F82010002901684A680FD09D
:1009500042F400624A6001684A6822F460424A60D8
:1009600001684A68174C436A04EB43331A4301E0B9
:1009700022F400624A600168CA6A22F47002CA6204
:100980000168CA6A838B104C04EB03531A43CA6292
:1009900001688A6822F400728A6001688A6890F8A7
:1009A000303042EA43228A6001688A6822F4806219
:1009B0008A6001688A68406942EA8020886010BDC8
:1009C0000023014000E0FFFF0000F0FF2DE9F041AF
:1009D0000D4606460024114F1BE01048283000F059
:1009E00079FF0E48FF21283000F022FF10B10120CE
:1009F000BDE8F0810948283000F0A0FE00EE100AA2
:100A000046F8240007EB8400B8EE400A641C80ED31
:100A1000000AAC42E1D30020EAE700001801002000
:100A20002DE9F0410D4606460024114F1BE0104809
:100A3000703000F04FFF0E48FF21703000F0F8FEDC
:100A400010B10120BDE8F0810948703000F076FE59
:100A500000EE100A46F8240007EB8400B8EE400AC6
:100A6000641C80ED000AAC42E1D30020EAE70000FC
:100A700018010020054B4FF40071012803D000221B
:100A8000184601F0F4BB0122FAE70000000802401A
:100A9000FEE70000014800F094BF0000D0010020F4
:100AA000014800F08EBF0000D0010020014800F096
:100AB00088BF0000D0010020134A30EE600A117890
:100AC000491C117001F00F03104A491E02EB830309
:100AD00001F00F0102EB810183ED000AD1ED000A64
:100AE0000B4970EE600A91ED051AB8EE411A21EE3D
:100AF000000A91ED041AB8EE411A01EE200A80EDC9
:100B0000000A0020704700009C000020B84200202E
:100B100000000408F0B5264A264BD2E90664D3E962
:100B20000253771B74EB030701DA212305E0AD1BA9
:100B3000A34101DA222300E020230B70D36A516A1B
:100B4000994201DD012105E0936A994201DD02210C
:100B500000E00321DFED180A116311B3012904D06D
:100B6000022910D003291ED110E092ED000AD2ED27
:100B70000D0A30EE200AD2ED010AF4EEC00AF1EEC1
:100B800010FA0ED30FE092ED010A0CE092ED000A8C
:100B900092ED0E1A30EE410AB5EEC00AF1EE10FAEF
:100BA00001D2B0EE600A80ED000A0020F0BD000026
:100BB000F8420020D84100200000000030B400239B
:100BC000114C124A012808D078B1022810D003280D
:100BD00001D10220507330BC704701202070137384
:100BE00009B15160F7E75060F5E723705360F2E711
:100BF00007487B21017081214170517B817030BC9D
:100C0000102103F007BC000090000020A842002043
:100C100058430020002201E000F8012B491EFBD2BE
:100C2000704700009FED040A02E000BFA0EC010A3B
:100C3000491EFBD27047000000000000154A10B5A5
:100C40005168491C5160102822D1134C606A401E23
:100C500060620A20B1FBF0F200FB121020B904F12F
:100C600014012046FFF756FF0C4894ED000AD0ED22
:100C70001B0A09480C30FFF71FFF0749D4ED040A8F
:100C800094ED030A1031BDE81040212002F026BF88
:100C900010BD00009C000020F8420020D841002038
:100CA00010B510213948FFF7B5FF384C7B201021D3
:100CB000207060206070364801F089F800EE100A5C
:100CC000F8EE400A9FED330A80EE801AFCEEC10A6E
:100CD00010EE901AA1706421B0FBF1F201FB12003A
:100CE000E0702D48D0ED000A80EE801AFCEEE00A9C
:100CF000BCEEC11A11EE102A227110EE902AB2FB3E
:100D0000F1F301FB13226271D0ED010A80EE801A2B
:100D1000FCEEE00ABCEEC11A11EE100AA07110EE52
:100D2000900AB0FBF1F201FB1200E0711B48D0ED1C
:100D3000000A80EE801AFCEEE00ABCEEC11A11EE49
:100D4000102A227210EE902AD2B2B2FBF1F301FB0C
:100D500013226272D0ED010A80EE801ABCEEC10A45
:100D600010EE100ABCEEE00AA07210EE100AC0B23B
:100D7000B0FBF1F201FB1200E072002020736073FF
:100D80002046BDE81040102103F044BB584300202A
:100D9000F80100200000C8426C0000207400002010
:100DA00010B5002A00DA5242D31702EB13631C0A73
:100DB00004701046087010BD30B5039C002C07DA93
:100DC0006442E51704EB15252D0E45F0800503E080
:100DD000E51704EB15252D0E0570E01704EB102523
:100DE00005F07F45651B00EE105ADFED0C0AB8EEEA
:100DF000C00A20EE200ABCEEC00A10EE105A0D7098
:100E000004EB10416FF30F01611ACD1701EB15616F
:100E1000090A11702046187030BD000000008037AC
:100E20002DE9F14F314C012721466078DFF8C08071
:100E30004E6840F2CE7B4FF0000A012813D1A5681E
:100E40005D4506D22B49C969B6FBF1F201FB12617F
:100E500019B35D4507D384F801A088F80D7084F8B4
:100E600000A0C4F808A0244890EDCE0AB5EEC00A50
:100E7000F1EE10FA02D1A168594507D384F801A018
:100E800088F80D7084F800A0C4F808A0009850B34A
:100E900098F80C104046B9B11DE0DFF85490A9F164
:100EA000D009D9E90201FFF7F9FAA9F57A5141F819
:100EB000250001F5FA5099ED1B0A00EB85006D1C29
:100EC00080ED000AA560CEE786600773416811B126
:100ED00006EB410101600168B14204D198F80C00B1
:100EE000012800D167700020BDE8F88F9000002035
:100EF000A842002000000408581F0020704710205E
:100F000001F0CCB810B5202001F0C8F8402001F065
:100F1000C5F8BDE810404FF4807001F0BFB8000084
:100F200004490020044A0860C1E9020012685062C6
:100F300008607047D84100204C0200200FB401998E
:100F40004A6A026147F6FF7301689A4201DA491C56
:100F500000E0491E0160019AC1EB0141526A11444F
:100F6000CA17C0E90212012004B0704770B53F4DA6
:100F700086B095F8680095F8C81040EA81061021FF
:100F80003B48FFF747FE3A4C7B2004AB2070202003
:100F90006070A868009003AA02A901A8FFF70CFFDF
:100FA0009DF80400A0709DF80800E0709DF80C000A
:100FB000207130499DF810006071486B00EE100AF6
:100FC000F8EE400A9FED2C0A80EE801AFCEEC10A72
:100FD00010EE900AA0714A6B6420B2FBF0F300FBA4
:100FE0001322E2718A6B00EE902AF8EE600A80EE1E
:100FF000801AFCEEC10A10EE902A2272896BB1FBB6
:10100000F0F200FB12116172A672D5ED1B0A20EE00
:10101000800ABDEEE01AF2EE040A11EE101ABCEEE0
:10102000C00AE17210EE101AB1FBF0F200FB1211CF
:10103000217395ED310A60EE200AFCEEE00A10EE15
:10104000901ADFED0E0A617320EE200ABCEEC00A92
:1010500010EE101AB1FBF0F200FB1210A073102179
:10106000204603F0D7F906B070BD0000D84100203B
:1010700058430020000001400000C84200007A44AC
:101080000FB40168019AC1EB0141526A1144CA17B9
:10109000C0E90212027D00EB82029161017D491CD0
:1010A000C9B21422B1FBF2F302FB1311017504B0B3
:1010B00070477047002229B101291AD002291BD09C
:1010C0004FF440720E490B6823F440730B600B68B9
:1010D00013430B600A6822F0F8020A600A680223D0
:1010E00003EBC00002430A60086840F480300860E7
:1010F00070474FF48072E5E74FF40072E2E70000BA
:10110000103C02401348016889050FD5016821F49D
:1011100000710160016841F400610160016821F41F
:1011200000610160016841F40071016001684905D6
:101130000FD5016821F480610160016841F480519C
:101140000160016821F480510160016841F480610F
:1011500001607047003C024008490A6822F440726E
:101160000A600A6842F004020A600A684FF4803399
:1011700043EA002002430A6070470000103C02402E
:10118000064A136823F440731360136813601368EE
:1011900043F001031360017070470000103C0240EF
:1011A000084910B50C6824F440740C600C6844F4D1
:1011B00040740C600C6844F001040C6002604360F1
:1011C00010BD0000103C0240074A136823F440732E
:1011D0001360136843F480731360136843F00103D2
:1011E0001360018070470000103C0240074A1368FA
:1011F00023F440731360136843F40073136013689F
:1012000043F001031360016070470000103C02408E
:1012100017490868C206174805D5C26942F010028E
:10122000C26110220A600A68920605D5C26942F0BE
:101230000802C26120220A600A68520605D5C26906
:1012400042F00402C26140220A600A68120605D513
:10125000C26942F00202C26180220A600A689207F3
:1012600005D5C26942F02002C261022008607047C1
:101270000C3C02400C03002070B5114904460020CC
:10128000C86100F0F9FF06460E4D09E0601C07D06A
:1012900024B100F0F1FF801BA04201D9032070BDF2
:1012A0002868C003F2D42868C00701D00120286054
:1012B000286810F0F200F2D0FFF7AAFF012070BDFD
:1012C0000C0300200C3C024070B5034604292FD9C2
:1012D000184C1948002200BF54F8225040F8225000
:1012E000521CD2B2182AF7D3491EC9B240F8213095
:1012F00000F0B4FE114901200022C1E900200622BD
:10130000C1E90220022008610D490C4800F012FEDC
:1013100040B10C48016841F480110160BDE87040A3
:1013200000F054BE18220449204602F0B3FBF5E752
:1013300070BD000000000408B800002068430020D1
:1013400064000020680000202DE9FC410021431EBC
:10135000052B01D801220EE0C31F052B01D8022264
:1013600009E0A0F10D03052B01D8032203E0133897
:10137000052800D804222848284E00BF50F8213004
:1013800046F82130491CC9B21829F7D3244C521E03
:10139000042A18D2002502EB420700BF05EB4700E4
:1013A00001A956F820206846FFF7FAFC04EB450037
:1013B0009DF8001081706D1C9DF80410EDB2C17095
:1013C000062DEBD30AE000204FEA000104EB4002B7
:1013D000401C9170C0B2D1700628F7D37B202070DA
:1013E0003020607000210120225C401CC0B21144FA
:1013F0000E28F9D3642091FBF0F200FB1210A073C9
:101400007D20E0734FF6FF7310220549054801F077
:10141000B1FEBDE8FC81000000000408B800002017
:1014200058430020CC02002010B500F017FE0E48F3
:1014300001210022C0E900210622C0E90221022187
:1014400001610A4900F076FD40B10948016841F4A4
:1014500080110160BDE8104000F0B8BD18220549B8
:10146000054802F017FBF5E7684300206400002000
:10147000680000200400002000000408F0B58BB0D4
:10148000064600200690044608AF6D4607900221EC
:1014900008A8FFF79BFA10B101200BB0F0BD57F878
:1014A000201000EE101A00EB440105EB8101B8EEAC
:1014B000400A401C022881ED000AF0DB641C032C6A
:1014C000E5DB00210DF1180201EBD17020F00100E5
:1014D000081A02EB800005EB810390ED000AD3EDC2
:1014E000000A491C062930EE200A80ED000AEBDBD9
:1014F0000020B0EE080A00BF02EB8001D1ED000A27
:1015000006EB8001401C80EE801A022881ED001A53
:10151000F2DB0020C1E70000F0B58BB006460020EA
:101520000690044608AF6D460790022108A8FFF711
:1015300077FA10B101200BB0F0BD57F8201000EE83
:10154000101A00EB440105EB8101B8EE400A401C83
:10155000022881ED000AF0DB641C032CE5DB00218E
:101560000DF1180201EBD17020F00100081A02EB16
:10157000800005EB810390ED000AD3ED000A491CC1
:10158000062930EE200A80ED000AEBDB0020B0EEE9
:10159000080A00BF02EB8001D1ED000A06EB8001D2
:1015A000401C80EE801A022881ED001AF2DB002038
:1015B000C1E70221FFF762BF70B50A4D102128462E
:1015C00000F050FE04462021284600F04BFE04EBBC
:1015D00040044021284600F045FE04EB8000C0B2E4
:1015E00070BD0000000402400221FFF795BF00001B
:1015F00078B50024009490F83C20012A19D00122EB
:1016000080F83C200A6807230568092A13D9EE6888
:101610000A3A02EB420293409E43EE600B788A68DE
:101620000A3B03EB43039A400368DD682A43DA6010
:1016300010E0022078BD2E6902EB420293409E43E7
:101640002E610B788A6803EB43039A4003681D6997
:101650002A431A614A681F23072A13D205686E6B52
:10166000521E02EB820293409E436E630B790A88FE
:101670005B1E92B203EB83039A4003685D6B2A43BF
:101680005A6327E005680D2A12D22E6BD21F02EB97
:10169000820293409E432E630B790A88DB1F92B22D
:1016A00003EB83039A4003681D6B2A431A6311E01E
:1016B000EE6A0D3A02EB820293409E43EE620B7992
:1016C0000A880D3B92B203EB83039A400368DD6AFC
:1016D0002A43DA62164B0568144A9D4206D10D680A
:1016E000122D03D1556845F48005556005689D426B
:1016F00018D10B68102B01D0112B13D1536843F470
:1017000000035360096810290CD10A490A4A096884
:10171000B1FBF2F101EB8101490000E0491E0091AB
:101720000029FBD180F83C40002078BD0023014017
:10173000002001408C00002040420F000068C06C77
:10174000704770B504004FF0000503D0206C0026F0
:1017500010B107E0012070BD204600F01DF866645E
:1017600084F83C60206CC00610D4206C20F48850B3
:1017700040F0020020642046FFF794F86664206C75
:1017800020F0020040F00100206400E0012584F810
:101790003C60284670BD000030B587B00446142177
:1017A0006846FEF757FD1E4A24681C4D00231C485E
:1017B000143A0321AC4215D1046844F480740460E7
:1017C000006800F480700590106840F0020010601E
:1017D0001068009100F002000590CDE90113694600
:1017E000104817E0104DAC4216D1046844F48064F0
:1017F0000460006800F480600590106840F001000B
:1018000010601068009100F001000590CDE901130F
:101810006946064800F04EFC07B030BD002001408C
:10182000443802400004024000220140000002400F
:101830002DE9F041044600680D4681684FF000072D
:1018400049050BD58068C00508D5206C40F0200004
:10185000206484F83C700120BDE8F08100F00CFDAC
:1018600006460FE0681C0DD025B100F005FD801B79
:10187000A84207D9206C40F00400206484F83C7032
:101880000320E9E7206800688007EBD521686FF046
:1018900012000860206C40F40070206420688168A9
:1018A00011F0405F13D1217E89B9C16A11F4700F24
:1018B00002D0806840050AD4206C20F48070206437
:1018C000206CC00403D4206C40F001002064002090
:1018D000C2E7000018B50021009190F83C20012AD1
:1018E00007D0012280F83C2002689368DB0702D011
:1018F00011E0022018BD936843F0010393602A4A67
:101900002A4B1268B2FBF3F202EB420200E0521ED5
:101910000092002AFBD102689368DB0741D0036C78
:1019200040F20164A34343F48073036453685B058E
:1019300005D5036C23F4005343F480530364036C14
:10194000DB0404D5436C23F00603436400E04164E8
:1019500080F83C1016496FF0220313604968006854
:10196000CA06144906D088421BD1816811F0405F35
:1019700013D016E08842F8D00F4A904203D1D1F834
:101980000423D206F1D00D4A90420AD1D1F80413B3
:1019900001F01F011029E8D303E0816841F0804184
:1019A0008160002018BD00008C00002040420F0024
:1019B000002301400020014000210140002201409D
:1019C00070472DE9F05F0546006800244669D0F8AD
:1019D00004908768D0F80CB0D0F810A0D0F8188028
:1019E000F10748D0F90714D001218160B80703D569
:1019F000284600F0C5F90CE0780702D54FF40064E2
:101A000007E0380702D54FF4805402E0284600F082
:101A1000B6F9F80516D529684FF480708860B805C6
:101A200003D5284600F0AEF90CE0780502D544F461
:101A3000005407E0380502D544F4804402E028460B
:101A400000F09FF9F80316D529684FF480308860BC
:101A5000B80303D5284600F097F90CE0780302D5C7
:101A600044F4004407E0380302D544F4803402E033
:101A7000284600F088F9300707D55FEACB6004D527
:101A80002968102044F40074C86070074FF00807FC
:101A900007D55FEA0B7004D52868C760284600F0B8
:101AA00069F9B00706D52868C068800702D02846C3
:101AB00000F061F9700607D55FEACA6004D52968AD
:101AC000102044F480640861B00607D55FEA0A700C
:101AD00004D528680761284600F04EF9F00606D5BF
:101AE00028680069800702D0284600F046F9B00354
:101AF00008D55FEAC96005D52968102048602846E6
:101B000000F03CF9F00307D55FEA097004D52868B6
:101B10004760284600F039F9300446D55FEA49703D
:101B200040D5F00504D55FEAC87001D044F0010447
:101B3000B00504D55FEA887001D544F00204700551
:101B400004D55FEA487001D544F00404300529D576
:101B500018F0700F26D008F07000402815D006DC71
:101B6000102809D020280AD0302816D10AE05028A1
:101B70000ED0602811D10EE044F008040DE044F0CE
:101B800010040AE044F0200407E044F0400404E0BC
:101B900044F0800401E044F480742868816921F0F5
:101BA00070018161296804204860002C05D0686AB2
:101BB000204368622846FFF703FFBDE8F09F70B539
:101BC000040003D094F8200010B104E0012070BD9F
:101BD000204600F081F82068016821F002010160D0
:101BE00000F04AFB0546052604E000F045FB401BDB
:101BF0000A2811D8206840688007F6D42068016858
:101C000041F00101016000F037FB05460BE000F0F8
:101C100033FB401B0A2806D9606A40F4003060623A
:101C200084F82060D2E720684068C007EFD0207EAB
:101C30000128206801683DD021F080010160607EAC
:101C400001282068016838D021F040010160A07EA1
:101C500001282068016833D021F020010160E07E76
:101C60000128206801682ED041F010010160207F1A
:101C700001282068016829D021F008010160607FF7
:101C800001282068016824D021F004010160D4E912
:101C900002010843D4E90412114308436168491E54
:101CA00008432168C86100206062012084F8200098
:101CB000002070BD41F08001C0E741F04001C5E760
:101CC00041F02001CAE721F01001CFE741F00801FF
:101CD000D4E741F00401D9E710B586B004461421D9
:101CE0006846FEF7B7FA20492068884239D11F4874
:101CF0000021026842F000720260006800F000708B
:101D000005901A481038026842F00102026000682B
:101D100000F0010005904FF4C05000900220CDE982
:101D2000010103200390092004906946104800F047
:101D3000C1F900220221142000F00EFB142000F053
:101D4000FDFA00220221152000F006FB152000F00C
:101D5000F5FA00220221162000F0FEFA162000F00B
:101D6000EDFA06B010BD00000064004040380240AB
:101D700000000240704770477047704770477047D7
:101D800070477047704770477047704770B5437928
:101D9000012B1AD0012646710223037105682C68B5
:101DA00040F6FE7393409C43D1E900310B439340CE
:101DB00023432B6001680B68C0249440A3430B604D
:101DC000067100214171084670BD022070BD006897
:101DD00009B1006B7047C06A704770B5040003D04A
:101DE0002079002510B105E0012070BD6571204605
:101DF00000F008F8022020712561012020710020E8
:101E000070BD000010B586B0044614216846FEF788
:101E100021FA1149206888421CD11048002102682B
:101E200042F000520260006800F0005005900B483C
:101E30001038026842F001020260006800F0010000
:101E40000590202000900320CDE901016946044857
:101E500000F030F906B010BD007400404038024078
:101E60000000024018B5046800940068104421B1D5
:101E7000143000900360002018BD0830F9E730B539
:101E80004279012A16D001224271022303710368AC
:101E90001D6802FA01F425431D60002901680B68E2
:101EA0000AD00C6803F4802304F46014B3F5802F87
:101EB0000FD015E0022030BD0C6803F0040304F0DD
:101EC0003804042B0CD1382C0AD14B6843F00103A1
:101ED00005E0B4F5601F03D14B6843F002034B608B
:101EE000027100214171084630BD90F83510022979
:101EF00003D08021416501207047052180F835100D
:101F00000068016821F001010160002070470000B5
:101F100070B5044600F0B0F90546601C02D00448D4
:101F20000078044400F0A8F9401BA042FAD370BD29
:101F3000800000202DE9F047044622480F46017E2C
:101F400001290AD00121804601764CF250394846D9
:101F5000FFF792F9020003D02FE00220BDE8F087DE
:101F60004FF0FF3038602068174D012801D0A66877
:101F70001CE0207C6168FFF7EFF84846FFF77CF92A
:101F80000246286820F00400286014E0217C3046D6
:101F9000FFF790F84846FFF76FF90200286820F035
:101FA000FA00286001D03E6005E0761CD4E90210FA
:101FB0000844B042EAD8FFF7A5F8002188F81810C5
:101FC0001046CBE70C030020103C02400348016898
:101FD00041F000410160002070470000103C0240C9
:101FE0002DE9F0471B4E05461446307E1F468946B4
:101FF000012808D0012030764CF250384046FFF7D7
:102000003BF918B114E00220BDE8F0879DB1012D25
:1020100016D0022D19D022463B464846FFF7C0F89D
:102020004046FFF729F90C490A6822F001020A60CC
:1020300000213176E8E7E1B24846FFF7A1F8EFE783
:10204000A1B24846FFF7C0F8EAE721464846FFF745
:10205000CDF8E5E70C030020103C024007490020C2
:102060000A68002A09DA054A054B0C3A1360054B49
:1020700013600968002900DA01207047103C024013
:1020800023016745AB89EFCD10B5FFF795FA0249FB
:1020900081F8C90010BD0000D8410020044910B5E6
:1020A0000A68024202D00860FFF7EEFF10BD000090
:1020B000143C01402DE9F84FDFF87CB100224FF0CD
:1020C00001084FF0030A4FF00F090BF1040E00BF97
:1020D0000B6808FA02F42340A3426ED14D68022D2A
:1020E00001D0122D0ED1D50800EB850CDCF8205064
:1020F0005607F70E09FA07F6B5430E69BE402E43A0
:10210000CCF82060066855000F790AFA05FC07F044
:10211000030726EA0C06AF40374307604E68012EDE
:1021200005D0022E03D0112E01D0122E0ED18668BA
:10213000CF6826EA0C06AF40374387604668A6435F
:102140000C79C4F30014944034434460C6688C682E
:1021500026EA0C06AC403443C4604C68E40065D504
:10216000364C256845F480452560246822F0030537
:1021700004F480440094324C2E19D6F80848950790
:102180002F0F09FA07F5AC432E4DA84201D10025C7
:1021900024E02D4DA84201D101251FE02B4DA8427E
:1021A00001D102251AE02A4DA84201D1032515E0EC
:1021B000284DA84202D1042510E037E0264DA84260
:1021C00001D105250AE0254DA84201D1062505E0EB
:1021D000234DA84201D1072500E00825BD40254335
:1021E000C6F80858DBF800405D464E689C43F6038D
:1021F00000D51C432C60DEF8004075464E689C43B9
:10220000B60300D51C432C600B4D08352C684E6876
:102210009C43F60200D51C432C60074D0C352C68FE
:102220004E689C43B60200D51C432C60521C102AF9
:10223000FFF44EAFBDE8F88F003C01404438024047
:10224000003001400000024000040240000802404B
:10225000000C02400010024000140240001802402E
:10226000001C02400069084000D0012070470AB1FC
:10227000816170470904FBE70148806870470000EE
:102280008000002002488168027811448160704714
:10229000800000200B4810B5016841F40071016016
:1022A000016841F480610160016841F4807101605E
:1022B000032000F071F8002000F006F800F024F888
:1022C000002010BD003C024070B50D4D04464FF497
:1022D0007A712878B1FBF0F00A490968B1FBF0F097
:1022E00000F0E2FA48B9102C07D200222146501E15
:1022F00000F032F800206C6070BD012070BD00005D
:10230000800000208C0000200B4882B0016841F45E
:1023100080410160006800F4804000900648001F82
:10232000016841F080510160006800F08050009029
:10233000052002B000F030B844380240002809DB24
:1023400000F01F02012191404009800000F1E020CF
:10235000C0F8001170470000F0B40E4B1B680C462B
:10236000C3F30223C3F10705042D00D90425191D69
:10237000072901D2002300E0DB1E012606FA05F141
:10238000491E214099409E40761E16403143F0BCC4
:1023900002F072B80CED00E0064900F00702086890
:1023A0004FF6FF03184040EA0220034A104308603A
:1023B000704700000CED00E00000FA052DE9F04741
:1023C0000E46050065D0DFF81481D8F80000F7B29A
:1023D00000F00F00B04207D288F80070D8F8000073
:1023E00000F00F00B04254D128683D4C810712D54F
:1023F000400703D5206840F4E050206028780007AB
:1024000003D5206840F4604020602068A96820F06F
:10241000F000084320602878C0072DD03049686854
:102420000839012812D0022813D0032811D00968D6
:10243000890700292DDA216821F003010143216079
:10244000FFF71AFF814641F2883A0EE009688903D6
:10245000EFE709688901ECE7FFF70EFFA0EB090140
:10246000514502D90320BDE8F0872068696800F073
:102470000C00B0EB810FEFD1D8F80010404601F00E
:102480000F01B14207D90770006800F00F00B04299
:1024900001D00120E7E72878400705D52068E968E2
:1024A00020F4E050084320602878000706D5206813
:1024B000296920F4604040EAC100206000F036F84D
:1024C0002168084AC1F30311515CC84006490860FD
:1024D0000020FFF7F9FE0020C5E70000003C0240A5
:1024E000083802406C4F00088C0000200448054961
:1024F00000680968044AC1F38221515CC8407047F2
:102500008C000020083802407C4F00080448054930
:1025100000680968044AC1F34231515CC840704701
:102520008C000020083802407C4F0008154810B588
:10253000006810F00C02144813D04110042A0FD088
:10254000082A0ED10F4C241F2268236802F03F0294
:102550005B0207D52068C0F38810A0FB010106E0EC
:10256000084610BD2168C1F38811A1FB00010023BA
:10257000FDF726FE2168C1F30141491C4900B0FB6B
:10258000F1F010BD083802400024F4002DE9F84FA6
:10259000050076D02878DFF8F8B2BE4CC00749D0E5
:1025A000DBF800105846C1F38101012908D000680A
:1025B000C0F3810002280AD1201D0068400206D520
:1025C0002068800336D568680028E2D032E0686869
:1025D000B0F5803F10D0B0F5A02F206810D020F4C7
:1025E00080302060206820F4802020606868A0B1DE
:1025F000FFF742FE06460CE0206840F48030F4E726
:1026000040F480202060F7E7FFF736FE801B642847
:1026100073D820688003F7D50CE0FFF72DFE06463F
:1026200005E000BFFFF728FE801B6428F0D8206873
:102630008003F7D42878DFF8608280074FF0000924
:102640003ED5DBF80010584611F00C0F09D0006899
:10265000C0F3810002280BD18D48001F00684002A2
:1026600006D42068800715D5E868012809D111E053
:10267000E868B8B10120C8F80000FFF7FDFD064684
:1026800005E002E1FFF7F8FD801B0228C0D82068B2
:102690008007F7D52068296920F0F80040EAC100DA
:1026A00020600DE0C8F80090FFF7E6FD064604E064
:1026B000FFF7E2FD801B02281FD820688007F7D4AF
:1026C0002878000722D5724E744869696C3671B15A
:1026D00001210160FFF7D0FD074604E0FFF7CCFDC4
:1026E000C01B022809D830688007F7D50EE0C0F873
:1026F0000090FFF7C1FD074605E083E0FFF7BCFD52
:10270000C01B02287ED830688007F7D4287840079D
:1027100068D5DFF87CA100270AF1380ADAF8000052
:10272000C0000BD4DAF8001041F08051CAF8001054
:10273000DAF80000012700F080500090584E306811
:10274000C00510D4306840F480703060FFF794FD0D
:10275000009005E0FFF790FD0099401A022851D83B
:102760003068C005F6D54A4EA868683601280FD0F3
:102770000528306810D020F001003060306820F06B
:1027800004003060A868B8B1FFF776FD00900FE054
:10279000306840F00100F4E740F004003060F7E7F3
:1027A000FFF76AFD0099411A41F28830814264D8EE
:1027B00030688007F4D50EE0FFF75EFD009007E07B
:1027C000FFF75AFD0099411A41F28830814254D8EE
:1027D00030688007F4D42FB1DAF8001021F080516E
:1027E000CAF80010A869C0B3DBF80010C1F381017A
:1027F00002294AD00228484607D0C8F86000FFF7EF
:102800003BFD00E039E005463AE04746C8F8600085
:10281000FFF732FD064604E0FFF72EFD801B02287D
:102820002BD820688001F7D4D5E907010843A96AAD
:102830001C4A490802EB01416A6A41EA82110843D5
:1028400095F82C1040EA01611148001F0160012039
:102850003866FFF711FD054605E014E0FFF70CFDB3
:10286000401B022809D820688001F7D50BE000BF83
:10287000FFF702FD401B022802D90320BDE8F88FB4
:1028800020688001F4D40020F8E70120F6E700007A
:10289000083802400038024000004742800E47429C
:1028A000007000400000FFFF10B5401EB0F1807FB7
:1028B00001D3012010BD4FF0E02460610F216017AB
:1028C00001F0DAFD0020A06107202061002010BD8A
:1028D0007047704710B590F83C20012A22D00122A1
:1028E00080F83C20CA688C6822F4407222434C680D
:1028F00022F4806222430C6822F4006222430C69B5
:1029000022F4805222434C6922F400522243C969C6
:10291000002322F480420A4301684A6480F83C3074
:10292000002010BD022010BD70B590F83C20012A97
:1029300019D0012400F83C4F0222427050F83C3C70
:102940005A689D6822F070060A684968324325F08B
:10295000800529435A6050F83C2C91604470002156
:102960000170084670BD022070BD10B5040003D090
:1029700094F83D0010B107E0012010BD002084F85C
:102980003C00204600F00CF8022084F83D00211D98
:10299000206801F0A7F9012084F83D00002010BD57
:1029A00008B500680B49884212D10B48016841F410
:1029B000807101600068012200F4807000900321A2
:1029C0002D20FFF7C9FCBDE808402D20FFF7B6BC5D
:1029D00008BD000000200040403802400168CA687D
:1029E00042F00102CA600068816801F0070106290F
:1029F00003D0016841F001010160002070472DE91A
:102A0000F0410D46040003D094F83D0018B108E0F1
:102A10000120BDE8F081002084F83C00204600F051
:102A20003BF8022084F83D002068816844F20702E8
:102A300091438160211D206801F054F9226890685B
:102A40009169166A2B68AF69034340F203308143F2
:102A500041EA0721A868EF6908434FF6FC41884323
:102A6000E96840EA0720014328692F6A000140EA2B
:102A70000730084369686D6926F0AA0646EA05151D
:102A8000294393602268906120680162012084F8E4
:102A90003D000020BDE7000010B586B004461421BB
:102AA0006846FDF7D7FB16492068884226D11548AD
:102AB0000021026842F002020260006800F0020099
:102AC000059010481038026842F001020260006868
:102AD00000F001000590C02000900220CDE9010126
:102AE000CDE9031069460848FFF7E4FA0022012106
:102AF0001D20FFF731FC1D20FFF720FC06B010BDA4
:102B0000000400404038024000000240704770B5A9
:102B10000446006801694FF00005C943890715D4D0
:102B2000C168C943890711D4E91E016101202077DA
:102B3000206880698007204602D0FFF7E7FF04E0A5
:102B400000F0C2F8204600F057F9257720680169A7
:102B5000C943490717D4C168C943490713D46FF063
:102B600004010161022020772068806910F4407F11
:102B7000204602D0FFF7CAFF04E000F0A5F8204687
:102B800000F03AF9257720680169C943090716D48E
:102B9000C168C943090712D46FF00801016104201C
:102BA00020772068C0698007204602D0FFF7AEFF7B
:102BB00004E000F089F8204600F01EF9257720682F
:102BC0000169C943C90617D4C168C943C90613D4EA
:102BD0006FF010010161082020772068C06910F4AF
:102BE000407F204602D0FFF791FF04E000F06CF830
:102BF000204600F001F9257720680169C943C9071B
:102C000008D1C168C943C90704D1891E01612046A2
:102C100000F016F920680169C943090609D4C168A2
:102C2000C943090605D46FF0800101612046FFF712
:102C30004FFE20680169C943490609D4C168C943E8
:102C4000490605D46FF040010161204600F05CF9AF
:102C500020680169C94389060BD4C168C943890644
:102C600007D46FF0200101612046BDE87040FFF7F6
:102C700030BE70BD10B586B0044614216846FDF71D
:102C8000E9FA0E492068884216D10D4800210268F1
:102C900042F001020260006800F0010005904FF46C
:102CA000407000900220CDE901010120CDE9031020
:102CB00069460448FFF7FEF906B010BD0000014068
:102CC0003038024000000240704770B5044690F86A
:102CD0003C000D4601280DD0012684F83C600220FE
:102CE00084F83D0042B1042A18D0082A2AD00C2AC0
:102CF0004DD139E0022070BD206801F065F82068F0
:102D0000816941F0080181612068816921F0040135
:102D10008161206881692A69114311E0206801F00E
:102D200083F82068816941F40061816120688169CC
:102D300021F480618161206881692A6941EA022168
:102D4000816124E0206801F0A5F82068C16941F0A4
:102D50000801C1612068C16921F00401C1612068D6
:102D6000C1692A69114311E0206801F0C7F82068A1
:102D7000C16941F40061C1612068C16921F48061C9
:102D8000C1612068C1692A6941EA0221C16184F8F0
:102D90003D60002084F83C0070BD10B5040003D0F5
:102DA00094F83D0010B107E0012010BD002084F828
:102DB0003C00204600F00CF8022084F83D00211D64
:102DC000206800F08FFF012084F83D00002010BD36
:102DD00008B500680649884208D10648016841F0F4
:102DE00001010160006800F00100009008BD0000D2
:102DF00000000140443802407047000010B504460E
:102E00000068012200F0D2FF0B492068884202D0FE
:102E10000A49884203D1416C41F400414164206871
:102E2000816801F00701062903D0016841F0010122
:102E30000160002010BD00000000014000040140BE
:102E400030B52B4D0446006829689DB0884214D1E6
:102E50003D2229460DA8FDF7E4F995F83D008DF8CF
:102E60007100342210A96846FDF7DBF90DF1340C2E
:102E700020489CE80E00FEF761F81F4920680968A9
:102E8000884232D11D4C6068401C6060401C00D1FB
:102E900060603D2216490DA8FDF7C3F995F83D0085
:102EA0008DF87100342210A96846FDF7BAF90DF1CA
:102EB000340C10489CE80E00FEF7E2F81048FEF7CC
:102EC00093FB1048FEF775FB0A4800F0BFFB207823
:102ED000FDF7A6FF2079C00707D1064890F8CA0081
:102EE0001DB0BDE83040FDF7A9BE1DB030BD0000EB
:102EF0004C020020D84100208C02002090000020CD
:102F00006C000020740000207047704770B50268A4
:102F100004461068D168536910F00F0F50D003F0C9
:102F2000010501F4907635435DD0C20705D0CA058E
:102F300003D5E26B42F00102E263420705D5DA07EE
:102F400003D0E26B42F00202E263820705D5DA07A2
:102F500003D0E26B42F00402E263020705D5DA0710
:102F600003D0E26B42F00802E263E26B002A33D046
:102F7000800604D5880602D5204600F0FDFF2068B3
:102F80004069E16BC0F38010090700D428B32046E4
:102F900000F0E4FF2068416949061AD5416921F033
:102FA00040014161606BA0B11B490165606BFEF798
:102FB0009CFF002810D0606B016DBDE87040084791
:102FC000830610D58B060ED52046BDE8704000F074
:102FD000D3BF2046FFF799FF70BD2046FFF795FF4E
:102FE0000020E06370BD030606D50B0604D520461D
:102FF000BDE8704001F062B94006F3D54806F1D54E
:10300000D168204621F04001D160202184F8391098
:1030100000F00DF970BD00004D3F000870B50400D0
:1030200004D094F83900002510B106E0012070BDED
:1030300084F83850204600F023F8242084F8390022
:103040002068C16821F40051C160204600F0E0FF13
:103050002068016921F4904101612068416921F0F3
:103060002A0141612068C16841F40051C160E563F3
:10307000202084F8390084F83A00002070BD000058
:1030800010B586B0044614216846FDF7E3F81749E9
:103090002068884228D11648016841F40031016057
:1030A000006800F40030059011481038016841F0C4
:1030B000010101600068694600F0010005900C20E4
:1030C000009002200190012002900320039007202D
:1030D00004900848FEF7EEFF022211462620FFF773
:1030E0003BF92620FFF72AF906B010BD0044004046
:1030F000403802400000024090F83A30202B22D1A4
:10310000F9B1F2B190F83830012B1CD08162828580
:10311000C2850021C163222280F83A2080F838104D
:103120000168CA6842F48072CA6001684A6942F064
:1031300001024A610068C16841F02001C1600020BD
:1031400070470120704702207047000010B5044608
:1031500001220649FFF7D0FF0548844205D1034C00
:10316000207801F00FF9FF20207010BD7D000020B5
:10317000CC0200202DE9F843044690F839001F46A0
:1031800016460D46202850D1A5B19EB194F83800BE
:1031900001284AD0012084F838004FF00008C4F814
:1031A0003C80212084F83900FFF766F8A684814628
:1031B000E68426E00120BDE8F883E08C401EE08430
:1031C000A0684B46B0F5805F4FF000024FF08001E1
:1031D0002046009703D001F0A2F8E8B90DE001F015
:1031E0009EF8C8B928882168C0F3080048602069A3
:1031F00008B16D1C05E0AD1C03E0216815F8010B5A
:103200004860E08C0028D8D14B460022402120465F
:10321000009701F084F808B10320CCE7202084F85F
:10322000390084F838800020C5E70220C3E77047E2
:10323000FEE700007FB500211B480091019102913B
:10324000184A0391026001244FF480320461C0E9FE
:103250000121017680F82010144AC0E90A210225D4
:10326000C561C16080F830104461FEF76AFA08B1A8
:10327000FDF71FFF0820CDE90004062002906946F3
:103280000948FEF7B5F908B1FDF713FF0920CDE9AC
:10329000000569460448FEF7ABF9002801D0FDF7A8
:1032A00008FF7FBD00200140400100200100000F09
:1032B0007FB500241A48009401940294174903949E
:1032C000016001254FF480310561C0E901140476E5
:1032D00080F820401349C0E90A140226C661C46080
:1032E00080F830404561FEF72CFA08B1FDF7E1FEA9
:1032F00007200094CDE9015069460948FEF778F9A6
:1033000008B1FDF7D6FECDE9005669460448FEF740
:103310006FF9002801D0FDF7CCFE7FBD00220140EF
:10332000880100200100000F0D4810B50B49016015
:103330001021416000218160C1600161416101761D
:1033400041768176C17601774177FEF738FC002817
:1033500003D0BDE81040FDF7ACBE10BD00640040D6
:10336000D00100201CB500240C4900940A480194A7
:1033700008600846FEF731FD08B1FDF79AFE00949B
:103380001022694605480194FEF700FD002801D08F
:10339000FDF78FFE1CBD000000740040F801002006
:1033A000F0B587B014216846FCF754FF3648002575
:1033B000016841F080010160016801F08001059120
:1033C000016841F001010160016801F0010105910E
:1033D000016841F002010160016801F002010591FC
:1033E000016841F0040101600068284E00F004000B
:1033F000059000224FF4D0513046FEF738FF244F9D
:10340000012208213846FEF732FFB015009021480E
:10341000CDE9010569463046FEF74CFE70150124E2
:103420008DE83100694630460394FEF743FE4FF4C1
:10343000C0508DE83100694630460395FEF73AFEEC
:1034400008208DE83100694638460394FEF732FEC5
:10345000702000901048CDE9010469463846FEF717
:1034600029FE002201210A20FEF776FF0A20FEF73E
:1034700065FF002201211720FEF76EFF1720FEF7DF
:103480005DFF07B0F0BD0000303802400008024088
:103490000004024000002110000011100B4810B57C
:1034A000094901605321416000214FF4FA72C0E9DB
:1034B000021201618161FFF758FA002803D0BDE8CC
:1034C0001040FDF7F6BD10BD002000408C0200202A
:1034D00010B592B000240F941C2168461094FCF79C
:1034E000B9FE202107A8FCF7B5FE24482249016057
:1034F0000321C0E901144FF47A71C0E90314446157
:103500008461FFF74AFC08B1FDF7D3FD0F940FA9C2
:103510001A481094FFF708FA08B1FDF7CAFD7020A9
:10352000CDE90004029403940494059400226946B2
:1035300012480694FFF7C9FB08B1FDF7BAFD042253
:1035400069460E48FFF7C1FB08B1FDF7B2FD0794CD
:10355000089409944FF400500A94CDE90B4007A950
:1035600006480E94FFF7B6F908B1FDF7A2FD03482F
:10357000FFF780FB12B010BD000001400C020020DC
:1035800010B58CB024216846FCF764FE0024164870
:10359000099414490A9401600121C0E901144FF60D
:1035A000FF72C0E9032484610320CDE90004029185
:1035B0000520CDE90340CDE90541CDE90740694645
:1035C0000948FFF71CFA08B1FDF773FD099409A932
:1035D00005480A94FFF7A8F9002801D0FDF769FD16
:1035E0000CB010BD000400404C0200200C4810B587
:1035F0000A4901604FF4E1314160002181600C22F1
:10360000C160C0E904128161C161FFF707FD0028B4
:1036100003D0BDE81040FDF74CBD10BD0044004094
:10362000CC020020FEE710B531280DD002DC2028A6
:103630000AD104E0412807D0602805D102E0FDF757
:1036400095FC01E0FDF72CFB002010BD2DE9F041B9
:103650000446007D0022143000F0FF0C1046134693
:10366000014616465FF01405ACEB060797FBF5FE26
:1036700005FB1E7704EB8707D7F818E00CEB06076D
:103680001EEB020240EBEE7007F10107B7FBF5FEFF
:1036900005FB1E7704EB870706F10106D7F818E053
:1036A000F6B21EEB030341EBEE71052EDCD3D31A09
:1036B000444E60EB0100A3FB062700FB06700021CF
:1036C00003FB01011046FCF7E9FE00EE900A9FEDB6
:1036D0003E1A0122002380EE810A10EE100A84EDCA
:1036E0001B0AB0F13F4F07D9FF2084F86800B1EE04
:1036F000400A84ED1B0A09E010EE100AB0F17C5F6D
:1037000002DD84F8682001E084F868302F484068C2
:10371000B0FBF5F105FB1100D8BB94F8C000401CCC
:10372000C0B2B0FBF5F105FB110084F8C00004EB5A
:10373000800080ED1C0A94F8C0009FED250A14302B
:10374000C1B2F0EE400A00200E1A96FBF5F705FB19
:10375000176604EB860696ED1C1A0E180B36B6FBA0
:10376000F5F705FB176604EB860631EE000A96EDC9
:103770001C1A401CC0B271EE200A0528E4D330EEBA
:10378000600A1448DFED140A80ED000A60EE200A9A
:1037900000E013E09FED111A80EE810A84ED310AFA
:1037A000B5EEC00AF1EE10FA06D2B1EE400A84ED91
:1037B000310A84F8C83001E084F8C8200120BDE84F
:1037C000F0810000C0D40100EB46914B9000002036
:1037D00000000000300300200000C84200009642B4
:1037E0007047000010B5FDF79BFB0B4909480860C6
:1037F0005FF0000150F82120521C0AD1491CC9B2C7
:103800001829F7D304491822BDE81040091D00F01B
:1038100041B910BD000004080000002070470000FE
:103820002DE9F0473F4C2DED048BC4E90601206AD9
:10383000606284ED010A00F01BF9DFED3C0AB0EE96
:10384000408ADFED3B8A88EE200A3749D4E9062614
:10385000D1E90201C4ED020AB2EB000866EB0106F1
:1038600020EE280ABDEEC00A10EE105A656410EE74
:10387000105AE56300EE105AF8EEC00A80EEA80A6E
:1038800020EE080A10EE100AFCF750FE9FED299B6F
:1038900053EC192BFCF790FDFCF723FE00EE105AB9
:1038A000C4E916010746F8EEC00A894680EEA80A68
:1038B00020EE080A10EE100AFCF738FE53EC192B24
:1038C000FCF77AFDFCF70DFEC4E91201C01941EBCB
:1038D0000901B8EB000066EB0106C4E914063146A5
:1038E000FCF7DCFD00EE100AC0EE080A20EEA80A84
:1038F000BDEEC00A10EE100A9FED100B20642844A4
:1039000028442062C4E90905401BE06251EC100B19
:10391000FCF71FFE6063A0630020BDEC048BBDE8D4
:10392000F0870000F8420020D84100200000FA4350
:1039300000007A44000000000000E03F9A99999945
:103940009999A93F70B5444A2DED028B10465378E2
:10395000C1788478302B64D011DC102B18D03E4D08
:10396000202BA878ED7800EBC00606EB001005EBE5
:10397000800020D0212B4AD0222B69D12EE036485E
:10398000502B007951D0602B62D0802B60D108E0A1
:10399000112C04D05FF00000FDF76CF858E0012016
:1039A000FAE701EBC10202EB011100EB81012046B5
:1039B000FDF704F94CE029498860117820290AD0E4
:1039C000212902D0222903D042E001F0ADFA3FE0E4
:1039D00001F092FA3CE001F0BFFA39E00846FCF74A
:1039E00073FD9FED1F1B53EC112BFCF7E5FC41EC25
:1039F000180B04EB84004000FCF766FD53EC182B19
:103A0000FCF733FCFCF7A5FD1749086020E00346EE
:103A1000B0F5805F1CD2002210211448FEF722FA74
:103A200016E02046FFF7FFFD12E0102C0AD0112C03
:103A300002D0132C0CD109E0527902EB0020FDF7E3
:103A400043FC05E00846FDF77FFC01E0FDF7ECFCD8
:103A5000BDEC028B002070BD85430020A800002033
:103A60009A9999999999B93FF8420020F801002054
:103A7000DFED060A9FED061A20EE200AF1EE000A9D
:103A800060EE200A80EE810A70470000000080444A
:103A90000000704270B516460D460446B0F1006F46
:103AA0001AD3A00718D1FEF7D9FA04EB86064CF218
:103AB0005030FDF7E1FB48B10AE000232146022027
:103AC0002A68FEF78DFA18B9241D2D1DB442F4D3CF
:103AD000BDE87040FEF77ABA70BD704730EE800ADC
:103AE000164B00B510EE102A9FED131A9A4202DD14
:103AF0009FED130A06E0B5EEC00AF1EE10FA01D20E
:103B0000B0EE410A81ED000A202803D0212805D01B
:103B100022280AD001F0E8F9002000BDBDEEC00A5D
:103B200010EE100A01F000FAF6E7BDEEC00A10EE42
:103B3000100A01F0E1F9EFE70000000000007A440C
:103B400000007A4470B5FFF74DFE01221D491E4862
:103B5000FFF7D2FA4FF47A63002210211B48FEF7D8
:103B600081F910211948FEF78AF91948FEF736FF46
:103B7000012251021748FEF77AFBFDF71DFD164C96
:103B8000002584F8C9001548456385632946144813
:103B9000FFF734F904211248FFF730F900212560BE
:103BA000C4E90211102084F8CA000F489FED0D0AE5
:103BB00080ED040A80ED030ABDE870400B48FEF773
:103BC0000DBF00007D000020CC020020F801002085
:103BD0004C02002000080240D841002000000140B3
:103BE0000C02002000000000F84200208C0200209F
:103BF000FEF748BB30B593B030216846FCF72AFB8E
:103C000014210CA8FCF726FB19480025016841F097
:103C100080510160006800F08050119015480168E3
:103C200041F4804101600068022400F4804011905A
:103C30000120039010200490009406940820CDE900
:103C40000750A820CDE9090404200B906846FEF730
:103C50009DFC0CA90F2081E831004FF4A0500F907B
:103C6000E002109005210CA8FEF7A8FB13B030BDB0
:103C700040380240007000401048016841F4700173
:103C800001600F48016841F0010101600C4A002108
:103C90000832116002680B4B1A400260031D0A4A89
:103CA0001A60026822F48022026005480C3001602C
:103CB00002495806803908607047000088ED00E02E
:103CC00000380240FFFFF6FE103000240148FEF7E6
:103CD0001EBF00004C0200200148FEF718BF000084
:103CE0008C020020F0B50268254C264D264E274F49
:103CF000274B4FF0804CA04209D0604507D0A84226
:103D000005D0B04203D0B84201D0984204D122F08D
:103D1000700E4A6842EA0E02A0421BD0604519D0DC
:103D2000A84217D0B04215D0B84213D0984211D053
:103D3000184DA8420ED0184DA8420BD0174DA842DE
:103D400008D0174DA84205D0164DA84202D0164DF6
:103D5000A84203D122F44075CA682A434D6922F073
:103D600080022A4302608A68C2620A688262A042B4
:103D700001D0984201D10969016301214161F0BD7F
:103D8000000001400004004000080040000C00401A
:103D9000000401400040014000440140004801404F
:103DA00000180040001C00400020004010B501F049
:103DB0001F030121046A99408C430462016A9A40FE
:103DC0001143016210BD0000F0B5026A22F0010249
:103DD0000262036A42688469124E24F073050C681B
:103DE0002C4323F002058B682B430D4DA84201D0D4
:103DF000B04205D123F00807CB683B4323F004030E
:103E0000A84201D0B04205D14D6922F44072154359
:103E10008A692A4342608461496841630362F0BD54
:103E20000000014000040140F0B5026A22F01002D7
:103E30000262026A436884690D6824F4E64444EA35
:103E400005248D6822F0200242EA05120F4D104E23
:103E5000A84201D0B04206D1CF6822F0800242EAE7
:103E6000071222F04002A84201D0B04207D14D69AA
:103E700023F4406343EA85038D6943EA8503436085
:103E80008461496881630262F0BD00000000014066
:103E900000040140F0B5026A22F480720262026AF4
:103EA0004368C46922F4007224F073050C68124E52
:103EB0002C438D6842EA05220E4DA84201D0B04243
:103EC00006D1CF6822F4006242EA072222F480621F
:103ED000A84201D0B04207D14D6923F4405343EAD0
:103EE00005138D6943EA05134360C4614968C163E2
:103EF0000262F0BD000001400004014030B5026ADA
:103F000022F480520262046A4268C3690D6823F495
:103F1000E64343EA05238D6824F4005444EA05345B
:103F2000084DA84202D0084DA84204D14D6922F4A0
:103F3000804242EA85124260C361496801640462BA
:103F400030BD0000000001400004014010B5806B4E
:103F50000021C185C184FEF7D8FF10BD0168CA6881
:103F600022F49072CA6001684A6922F001024A6133
:103F7000202180F83A10704710B590F83A102229A5
:103F800001D0022010BD8168B1F5805F11D00169B8
:103F9000002901681FD0496801F07F03816A4A1C2B
:103FA00082620B70C18D491E0904090CC18518D0AD
:103FB0002BE00269816A002A0268526805D0D2B2F9
:103FC0000A80816A491C8162ECE7C2F308020A8018
:103FD000816A891CF7E74A68816A4B1C83620A7010
:103FE000E0E70168CA6822F02002CA600168CA6876
:103FF00022F48072CA6001684A6922F001024A61B3
:10400000202180F83A10FFF7A1F8002010BD000031
:104010002DE9F041044600680169E26821F440514D
:10402000114301612169A068E26908436169114394
:1040300022680843D16849F20C6399430143D16077
:1040400020684169A26921F4407111434161E2692C
:104050006425B2F5004F9748974922684FF032081F
:104060003FD08A4201D082427CD1FEF74FFA00EB6A
:10407000C00101EB001061688900B0FBF1F6FEF7AA
:1040800045FA00EBC00101EB001061688900B0FB4C
:10409000F1F0B0FBF5F06FF01801484306EB80013A
:1040A00008EB0110B0FBF5F000F0F006FEF72EFA79
:1040B00000EBC00101EB001061688900B0FBF1F07A
:1040C000B0FBF5F006EB0016FEF720FA00EBC0019E
:1040D00001EB001061688900B0FBF1F7FEF716FAFA
:1040E000D2E08A4201D082423DD1FEF70FFA00EBC6
:1040F000C00101EB001061684900B0FBF1F0B0FBBA
:10410000F5F00601FEF702FA00EBC00101EB00102A
:1041100061684900B0FBF1F7FEF7F8F900EBC00168
:1041200001EB001061684900B0FBF1F0B0FBF5F065
:104130006FF01801484307EB800108EBC100B0FBAA
:10414000F5F000F0F80006EB4006FEF7DFF900EBB3
:10415000C00101EB001061684900B0FBF1F7FEF708
:10416000D5F93CE055E0FEF7C1F900EBC00101EBE9
:10417000001061684900B0FBF1F0B0FBF5F00601FA
:10418000FEF7B4F900EBC00101EB001061684900D3
:10419000B0FBF1F7FEF7AAF900EBC00101EB00104C
:1041A00061684900B0FBF1F0B0FBF5F06FF0180169
:1041B000484307EB800108EBC100B0FBF5F000F0CD
:1041C000F80006EB4006FEF791F900EBC00101EBA9
:1041D000001061684900B0FBF1F7FEF787F900EBCA
:1041E000C00101EB001061684900B0FBF1F0B0FBC9
:1041F000F5F06FF01801484307EB800108EBC100B0
:10420000B0FBF5F000F00700216830448860BDE89D
:10421000F081FEF76BF900EBC00101EB0010616863
:104220008900B0FBF1F6FEF761F900EBC00101EB8C
:10423000001061688900B0FBF1F0B0FBF5F06FF0A1
:104240001801484306EB800108EB0110B0FBF5F0C4
:1042500000F0F006FEF74AF900EBC00101EB001098
:1042600061688900B0FBF1F0B0FBF5F006EB0016D9
:10427000FEF73CF900EBC00101EB0010616889001A
:10428000B0FBF1F7FEF732F900EBC00101EB0010D3
:1042900061688900B0FBF1F0B0FBF5F06FF0180138
:1042A000484307EB800108EB0110B0FBF5F000F08C
:1042B0000F00A9E7001401400010014090F83910E8
:1042C000212901D0022070478168B1F5805F016A21
:1042D0000BD04A1C0262026809785160C18C491EE9
:1042E0000904090CC1840ED017E009880268C1F3E3
:1042F0000801516001690029016A02D0491C01626C
:10430000ECE7891CFBE70168CA6822F08002CA60FA
:104310000068C16841F04001C160002070472DE98C
:10432000F041984617460E460446069D1DE0681C5F
:104330001BD02DB1FDF7A0FFA0EB0800A84214D9B7
:104340002068C16821F4D071C1602068416921F002
:1043500001014161202084F8390084F83A000020EE
:1043600084F838000320BDE8F0812068006836EA50
:10437000000004D00020B842D9D00020F3E701208B
:10438000F9E70000F0B51E491C4C012700230A780C
:104390007D2803D04D78012D23D029E0092A1ED194
:1043A0004B608B701A468D78665D6D1CEDB23244A1
:1043B0008D70082DF7D36425B2FBF5F605FB1622A8
:1043C0004A60257A95420AD10C4D00220935A65C37
:1043D000AE54521CD2B2092AF9D30A4A17700B7094
:1043E00001E0082A01D94B7002E0A054521C0A7067
:1043F0007B2801D14F700B70F0BD00007C43002082
:10440000A80000207C0000200148FEF77FBD0000CE
:10441000CC02002030B400220B4610290FD101211C
:10442000445C491C22440E29FAD36421B2FBF1F406
:1044300001FB142181737B2101707D21C1739AB22C
:10444000014630BC4FF6FF730148FEF793BE0000F3
:10445000CC020020FEE700000FB4054B10B503A905
:10446000044A029800F0EAF810BC5DF814FB000062
:104470006D4D0008B40000200907090E002804DB78
:1044800000F1E02080F80014704700F00F0000F108
:10449000E02080F8141D704702E008C8121F08C110
:1044A000002AFAD170477047002001E001C1121FB5
:1044B000002AFBD1704700002DE9FF5F82B0002188
:1044C000DDE90430020DDDF840B0034318D044F6B6
:1044D0001050A2F2FF3242431514119801281FD048
:1044E000A5EB0B00401C5FEA000A4FF000064E4FA0
:1044F000DFF83891B046504615D5CAF1000413E0F4
:10450000119801244AA3012801D16FEA0B010298F6
:10451000119AC0E90031C0E9024206B0BDE8F09F3F
:10452000CBF10000DFE704460021404A491842EB86
:104530000450CDE9001012E0E00707D032463B46B8
:1045400040464946FBF738FF8046894632463B469F
:1045500010461946FBF730FF06460F466410002C44
:10456000EAD1DDE90401DDE90023BAF1000F06DA42
:10457000FBF722FF42464B46FBF71EFF05E0FCF728
:10458000DFF842464B46FCF7DBF804460E460022B5
:10459000284BFCF75DF903D84FF0FF30014607E0E8
:1045A0000022254B20463146FBF75FFEFCF737F92A
:1045B000102409E0002C0ADB0A220023FBF700FE8E
:1045C000039B30321A55641E50EA0102F2D1641C7A
:1045D000039AC4F111031444119A012A03D0012251
:1045E00008430DD10AE0084304D000204FF0110B1E
:1045F000119072E7A3EB0B056D1E0DE05B4504DD2A
:104600004FF0000205F1010504E003DA4FF000026B
:10461000A5F10105002AECD002981199C0E90231F8
:10462000C0E9004579E70000000014400000F03FB9
:10463000300000000000F0430000E03F2DE9FF4F94
:1046400095B09B468946064600250FE2252877D17E
:1046500000242746F84A0121059400E0044316F897
:10466000013F203B01FA03F01042F7D130782A28AD
:1046700011D06FF02F033078A0F13002092A16D83C
:10468000059A44F0020402EB820203EB420210445A
:10469000761C0590EFE759F8042B0592002A03DAFF
:1046A000504244F40054059044F00204761C3078E3
:1046B0002E2816D116F8010F44F004042A280DD034
:1046C0006FF02F023078A0F13003092B09D807EBE7
:1046D000870302EB4303C718761CF3E759F8047B02
:1046E000761C30786C280FD006DC4C2817D0682850
:1046F0000DD06A2814D104E0742810D07A280FD184
:104700000DE044F400140AE044F4801401E044F4A1
:1047100040147278824202D104F58014761C761C13
:10472000307866280BD013DC582877D009DC0028B5
:1047300075D04528F6D04628F4D047281AD19DE1F7
:1047400018E0632835D0642879D0652812D195E126
:10475000702873D008DC6728F1D069286FD06E28E4
:104760000DD06F2806D1B5E073282CD0752875D0F0
:10477000782874D05A46179990476D1C75E1C4F398
:104780000250022809D003280DD0D9F800100428BF
:104790000DD00D6009F1040967E1D9F80010EA179E
:1047A000C1E90052F6E7D9F800100D80F2E70D706C
:1047B000F0E719F8041B8DF8001000208DF80100B7
:1047C000EA46012003E059F804AB4FF0FF306107DF
:1047D0004FF0000102D40DE008F101018846B94212
:1047E0000FDA8045F8DB1AF808100029F4D108E048
:1047F00008F1010188468142FADB1AF80810002905
:10480000F6D105985B46A0EB080721463846179A73
:1048100000F094FA284400EB080507E04DE029E198
:104820000DE01AF8010B5A4617999047B8F10108A4
:10483000F7D25B4621463846179A13E142E00A2236
:104840000092C4F302524FF0000A022A08D059F82D
:1048500004CB032A4FEAEC710AD00DE029E02AE0EC
:1048600009F1070121F00702F2E802C1914609E0CF
:104870000FFA8CFC4FEAEC71042A03D14FFA8CFC3E
:104880004FEAEC71002907DA0A460021DCF1000C3E
:1048900061EB02012D2202E0220504D52B228DF8C6
:1048A0000420012203E0E20701D02022F7E790462E
:1048B00059E00A2102E010220DE010214FF0000A19
:1048C00000910BE010224FF0000A44F00404082786
:1048D000009203E008224FF0000A0092C4F3025253
:1048E000022A05D059F804CB0021032A08D009E098
:1048F00009F1070121F00702F2E802C1914605E043
:104900001FFA8CFC042A01D10CF0FF0C4FF00008B8
:10491000220728D5702806D0009B83F0100353EAA5
:104920000A0305D00EE040228DF80420012208E0A1
:104930005CEA010206D030228DF804208DF80500D3
:1049400002229046009B83F0080353EA0A030AD12F
:104950005CEA010201D1620705D530228DF80420FE
:104960004FF001087F1E582804D034A003900EA8F1
:1049700002900DE036A0F9E753466046009AFBF737
:104980001FFC84460398825C0298401E02900270CD
:104990005CEA0100F0D1029806A9081A00F1200A89
:1049A000600702D524F4803400E00127574502DD7A
:1049B000A7EB0A0000E0002000EB0A010090059838
:1049C0004144401A0590E00306D45B462146179AFD
:1049D000059800F0B3F90544002706E001A85A46FF
:1049E000C05D179990476D1C7F1C4745F6DBE003BF
:1049F0000CD55B462146179A059800F09FF90544AF
:104A000004E030205A46179990476D1C0099481EC3
:104A100000900029F5DC08E0029802995A460078D7
:104A2000491C0291179990476D1CBAF10001AAF137
:104A3000010AF1DC65E10000092801003031323360
:104A400034353637383961626364656600000000CA
:104A500030313233343536373839414243444546B4
:104A60000000000000F058F90544761C307800285A
:104A70007FF4ECAD19B02846BDE8F08F620700D492
:104A8000062709F1070222F0070CFCE80223E146A1
:104A900003F000485FEA080C02D00FF2702C0DE022
:104AA0005FEA045C02D50FF2682C07E05FEAC47C81
:104AB00002D00FF2602C01E0AFF2700C4FF0FF3823
:104AC00023F00043CDF850C065280CD006DC452803
:104AD00009D046281DD047283DD13DE0662818D092
:104AE00067287ED138E00021112F01DB112000E082
:104AF000781CCDE9000106A90EA8FFF7DDFCDDE971
:104B00000F010E9A03910021009207F1010A04910E
:104B10004DE04FF000400097CDE9011006A90EA826
:104B2000FFF7CAFCDDE90F0203920E9B11990022E8
:104B3000DDF80CA00093049211B9791C00EB010A76
:104B4000B7EB0A0004D4C0F1FF3007F1010A04906A
:104B5000AAEB0700019044E0012F00DA01270021B1
:104B6000112F01DD112000E03846CDE9000106A932
:104B70000EA8FFF7A1FCDDE90F010E9A03910021B9
:104B800004910092BA4621070CD40399514500DAEA
:104B90008A46BAF1010F05DD009AAAF10101515CC4
:104BA000302908D0B84202DA10F1040F06DA0121E8
:104BB000CDE9011015E0AAF10101E9E7002805DCC3
:104BC000049901440491AAEB000102E0411C514503
:104BD00000DD8A460499401A401C01904FF00040C5
:104BE0000290200704D40198504501DBCDF80480E1
:104BF00000208DF84F0002980DF14F07B0F1004FE3
:104C000025D02B200E9002984FF0020800280CDAD5
:104C1000404202902D200E9007E00A210298FBF7F7
:104C2000B4FC3031029007F8011DB8F10001A8F181
:104C30000108F2DC02980028EFD1791E0E98087066
:104C4000307800F0200040F0450007F8020D12A86F
:104C5000C01B00F107081498007800B1012000EB98
:104C60000A01019801EBE07105984144401A401E89
:104C70000590E00306D45B462146179A059800F09C
:104C80005DF805441498007818B15A461799904772
:104C90006D1CE00324D55B462146179A059800F069
:104CA0004DF805441CE00498002807DBDDE903010A
:104CB000884203DD0098405C179901E01799302085
:104CC0005A469047049805F10105401C049001984C
:104CD000401E019004D12E205A46179990476D1C12
:104CE000BAF10001AAF1010ADDDC05E017F8010BB9
:104CF0005A46179990476D1CB8F10001A8F10108B8
:104D0000F4DC5B462146179A0598ABE62D000000BF
:104D10002B000000200000002DE9F0410446002592
:104D20001E461746880404D405E039462020B047C3
:104D30006D1C641EF9D52846BDE8F0812DE9F041CF
:104D4000044600251E469046C80301D5302700E0E2
:104D50002027880404D505E041463846B0476D1C3D
:104D6000641EF9D52846BDE8F081000013B54FF662
:104D7000FF73012269460248FEF7FCF900981CBD4A
:104D8000CC0200201CB5FDF785FAFEF733FFFEF7D5
:104D900007FBFEF74FFAFEF78BFAFEF7C5FAFEF7B0
:104DA000E1FAFEF795FBFEF7EBFBFEF777FBFEF76C
:104DB0001DFCFEF7C7FE4FF47A70FDF7A9F82949EC
:104DC0004EF25E729FED280AD1E90201801841F18E
:104DD00000010122FEF724FDDFF890B04FF0000A39
:104DE0004FF4FA6722480178012903D180F800A026
:104DF000FEF7A8FD9BF80D100029F3D00229F1D190
:104E00001C4A82F800A08BF80DA072B61AA0FFF71A
:104E100023FBDFF88480DFF88490002458F8240016
:104E2000FBF784FB05460E4659F82400FBF77EFB92
:104E300041EC100BCDE9005653EC102B214618A085
:104E4000FFF70AFB641CBC42E8D31FA0FFF704FB7A
:104E500039461248FBF7E6FE39460F48FBF7E2FEFB
:104E600062B6BFE7D841002000008C42A842002073
:104E70007C000020900000202A2A2A2A2A2A2A2A96
:104E80002ACAE4B3F6BFAACABC2A2A2A2A2A2A2A8C
:104E90002A2A2A2A2A0A00009822002058030020E1
:104EA000202020202025336420202020202025368B
:104EB0002E33662020202020202025362E33662009
:104EC00020202020200A00002A2A2A2A2A2A2A2AE8
:104ED0002ACAE4B3F6CDEAB1CF2A2A2A2A2A2A2AF4
:104EE0002A2A2A2A2A0A00000248002141638163F3
:104EF0000846704700000140094910B50A6A09498F
:104F0000002302EB8204B0EB440F8B6302D24863B0
:104F1000012010BD02EB820040004863002010BD5C
:104F20000000040800000140094910B50A6A094957
:104F3000002302EB8204B0EB440F4B6302D2886380
:104F4000012010BD02EB820040008863002010BDEC
:104F5000000004080000014003484FF47A714163E7
:104F60008163002070470000000001400000000045
:104F70000000000001020304060708090000000009
:104F800001020304A44F000800000020B800000044
:104F9000984400085C500008B8000020D846000083
:104FA000A84400080000000001000000010000000B
:104FB00000000000010000000100000001000000EE
:104FC000000000000A000000630000000000000074
:104FD00000000000000000000000000000000000D1
:104FE00000000000000000000000000000000000C1
:104FF00000000000000000000000000000000000B1
:1050000000000000000000000000000000000000A0
:105010000000000000000000000000000000000090
:10502000000000000100000010000000000000006F
:105030000024F40000000000000000000000000058
:105040000000000000000000000000000000000060
:0C50500000000000000000000000000054
:040000050800018965
:00000001FF
