:020000040800F2
:10000000100800209D0100088D2F0008D929000844
:10001000E12D0008550500089D390008000000008A
:100020000000000000000000000000001130000887
:100030000D07000800000000C92F000899300008D3
:10004000B7010008B7010008B7010008B7010008B0
:10005000B7010008B7010008B7010008B7010008A0
:10006000B7010008B70100080F070008B701000832
:10007000B7010008B7010008B7010008B701000880
:10008000B7010008B7010008B7010008B701000870
:1000900059050008650500087105000815070008E6
:1000A000B7010008B7010008B7010008B701000850
:1000B000B701000875310008B7010008B701000852
:1000C000B7010008B7010008B7010008B701000830
:1000D000B7010008B701000851390008B70100084E
:1000E000B7010008B7010008B7010008B701000810
:1000F000B701000881310008B7010008B701000806
:10010000B7010008B7010008B7010008B7010008EF
:10011000B7010008B7010008B7010008B7010008DF
:10012000B7010008B7010008B7010008B7010008CF
:10013000B70100080000000000000000B70100083F
:10014000B7010008B7010008B7010008B7010008AF
:10015000B7010008B7010008B7010008B70100089F
:10016000B7010008B7010008B7010008B70100088F
:10017000B7010008B70100080000000000000000FF
:10018000B7010008B7010008DFF80CD000F0DAF87A
:1001900000480047DD390008100800200648804765
:1001A00006480047FEE7FEE7FEE7FEE7FEE7FEE75C
:1001B000FEE7FEE7FEE7FEE72131000889010008BF
:1001C0002DE9F05F0546002092469B46884606468C
:1001D000814640241BE0284641464746224600F01F
:1001E00069F853465A46C01A914110D31146184631
:1001F000224600F050F82D1A67EB01084F462246C0
:100200000120002100F047F817EB00094E41201EA5
:10021000A4F10104DFDC484631462A464346BDE8E6
:10022000F09F40EA01039B0703D009E008C9121FB1
:1002300008C0042AFAD203E011F8013B00F8013BA0
:10024000521EF9D27047D2B201E000F8012B491ECC
:10025000FBD270470022F6E710B513460A46044663
:100260001946FFF7F0FF204610BDF0B4CA17CB0FB8
:1002700050405140C61841F100054FEAC372314663
:1002800028004FF0960303D0B623F0BC00F02BB843
:1002900030460021F9E7202A04DB203A00FA02F177
:1002A000002070479140C2F1200320FA03F3194364
:1002B00090407047202A04DB203A21FA02F0002106
:1002C000704721FA02F3D040C2F120029140084366
:1002D000194670470029A8BF7047401C490008BF55
:1002E00020F00100704710B4B0FA80FC00FA0CF066
:1002F00050EA010404BF10BC704749B1CCF120049E
:1003000021FA04F411FA0CF118BF0121214308432A
:10031000A3EB0C01CB1D4FEA00614FEA102042BF56
:10032000002010BC704700EBC35010440029A4BF4C
:1003300010BC7047401C490008BF20F0010010BCF1
:1003400070470000064C074D06E0E06840F00103EE
:1003500094E8070098471034AC42F6D3FFF718FF33
:10036000943A0008B43A0008464910B54A6822F4A5
:1003700040324A604A6843681A434A6001684A68E2
:1003800022F480724A6001684A68036942EA0322E3
:100390004A6001684A6822F040724A6001684A680F
:1003A00083681A434A6001688A6822F400628A609E
:1003B00001688A68C3681A438A60816A6FF0706254
:1003C000D14201688A6822F070628A6001688A6896
:1003D0000CD0836A1A438A6001688A6822F040520E
:1003E0008A6001688A68C36A1A4301E022F04052B9
:1003F0008A6001688A6822F002028A6001688A685D
:10040000037E42EA43028A6090F8201000290168C6
:100410004A680FD042F400624A6001684A6822F4D8
:1004200060424A6001684A68174C436A04EB4333F0
:100430001A4301E022F400624A600168CA6A22F4A9
:100440007002CA620168CA6A838B104C04EB0353C2
:100450001A43CA6201688A6822F400728A600168DD
:100460008A6890F8303042EA43228A6001688A68DC
:1004700022F480628A6001688A68406942EA8020CA
:10048000886010BD0023014000E0FFFF0000F0FF86
:100490002DE9F0410D4606460024114F1BE010489F
:1004A000283000F0EFFD0E48FF21283000F098FDC5
:1004B00010B10120BDE8F0810948283000F016FD98
:1004C00000EE100A46F8240007EB8400B8EE400A5C
:1004D000641C80ED000AAC42E1D30020EAE7000092
:1004E000040100202DE9F0410D4606460024114F7D
:1004F0001BE01048703000F0C5FD0E48FF21703041
:1005000000F06EFD10B10120BDE8F08109487030A7
:1005100000F0ECFC00EE100A46F8240007EB840023
:10052000B8EE400A641C80ED000AAC42E1D3002022
:10053000EAE7000004010020054B4FF40071012898
:1005400003D00022184601F071BA0122FAE7000038
:1005500000080240FEE70000014800F00ABE00006B
:10056000BC010020014800F004BE0000BC010020D6
:10057000014800F0FEBD0000BC010020002201E0A7
:1005800000F8012B491EFBD27047000010B5102166
:100590003948FFF7F3FF384C7B2010212070602092
:1005A0006070364800F0EBFF00EE100AF8EE400AEB
:1005B0009FED330A80EE801AFCEEC10A10EE901A0D
:1005C000A1706421B0FBF1F201FB1200E0702D4834
:1005D000D0ED000A80EE801AFCEEE00ABCEEC11AF3
:1005E00011EE102A227110EE902AB2FBF1F301FBFA
:1005F00013226271D0ED010A80EE801AFCEEE00A4F
:10060000BCEEC11A11EE100AA07110EE900AB0FBF8
:10061000F1F201FB1200E0711B48D0ED000A80EE00
:10062000801AFCEEE00ABCEEC11A11EE102A22720A
:1006300010EE902AD2B2B2FBF1F301FB13226272E8
:10064000D0ED010A80EE801ABCEEC10A10EE100A4D
:10065000BCEEE00AA07210EE100AC0B2B0FBF1F2DC
:1006600001FB1200E0720020207360732046BDE899
:100670001040102103F072B9DC030020E4010020D7
:100680000000C8426C0000207400002010B5002A51
:1006900000DA5242D31702EB13631C0A04701046AF
:1006A000087010BD30B5039C002C07DA6442E517D2
:1006B00004EB15252D0E45F0800503E0E51704EB4E
:1006C00015252D0E0570E01704EB102505F07F456C
:1006D000651B00EE105ADFED0C0AB8EEC00A20EEE2
:1006E000200ABCEEC00A10EE105A0D7004EB104147
:1006F0006FF30F01611ACD1701EB1561090A117033
:100700002046187030BD0000000080377047102070
:1007100001F09CB84FF4807001F098B804480021B3
:10072000044A017041601268516201707047000014
:1007300018030020380200200FB401994A6A826031
:1007400047F6FF7390F900109A4201DA491C00E065
:10075000491E0170019A49B2C1EB0141526A11442C
:100760004160012004B0704710B586B010212748C1
:10077000FFF704FF254C7B2004AB20702020607025
:10078000234803AA02A94068009001A8FFF78AFF46
:100790009DF80400A0709DF80800E0709DF80C0022
:1007A00020719DF8100060711A48416BDFED1A0A44
:1007B00000EE101AB8EE400A80EE201ABCEEC10A14
:1007C00010EE101AA171426B6421B2FBF1F301FB30
:1007D0001322E271826B00EE102AB8EE400A80EE1E
:1007E000201ABCEEC10A10EE102A2272806BB0FBF8
:1007F000F1F201FB120060720020A072207360739E
:100800001021204603F0AAF806B010BDDC0300203A
:1008100018030020000001400000C8420FB490F906
:100820000010019AC1EB0141526A11444160027B00
:1008300000EB82021161017B491CC9B21422B1FB99
:10084000F2F302FB1311017304B07047704700000C
:10085000002229B101291AD002291BD04FF440727D
:100860000E490B6823F440730B600B6813430B6055
:100870000A6822F0F8020A600A68022303EBC0004B
:1008800002430A60086840F48030086070474FF403
:100890008072E5E74FF40072E2E70000103C02408E
:1008A0001348016889050FD5016821F400710160C2
:1008B000016841F400610160016821F40061016098
:1008C000016841F400710160016849050FD50168B4
:1008D00021F480610160016841F480510160016888
:1008E00021F480510160016841F48061016070472A
:1008F000003C024008490A6822F440720A600A6813
:1009000042F004020A600A684FF4803343EA002090
:1009100002430A6070470000103C0240064A136818
:1009200023F44073136013681360136843F00103EA
:100930001360017070470000103C0240084910B578
:100940000C6824F440740C600C6844F440740C602F
:100950000C6844F001040C600260436010BD0000AC
:10096000103C0240074A136823F440731360136875
:1009700043F480731360136843F001031360018034
:1009800070470000103C0240074A136823F440738C
:100990001360136843F400731360136843F001039A
:1009A0001360016070470000103C0240174908685E
:1009B000C206174805D5C26942F01002C261102272
:1009C0000A600A68920605D5C26942F00802C2614F
:1009D00020220A600A68520605D5C26942F0040264
:1009E000C26140220A600A68120605D5C26942F057
:1009F0000202C26180220A600A68920705D5C269B4
:100A000042F02002C2610220086070470C3C0240A4
:100A1000F802002070B5114904460020C86101F0B9
:100A20000BF806460E4D09E0601C07D024B101F01A
:100A300003F8801BA04201D9032070BD2868C003C1
:100A4000F2D42868C00701D001202860286810F07F
:100A5000F200F2D0FFF7AAFF012070BDF8020020DB
:100A60000C3C024070B5034604292FD9184C194894
:100A7000002200BF54F8225040F82250521CD2B23B
:100A8000182AF7D3491EC9B240F8213000F0BEFE43
:100A9000114901200022C1E900200622C1E90220FB
:100AA000022008610D490C4800F01CFE40B10C48C2
:100AB000016841F480110160BDE8704000F05EBE45
:100AC00018220449204602F080FAF5E770BD0000C4
:100AD00000000408A4000020EC03002064000020B3
:100AE000680000202DE9FC410021431E052B01D8A0
:100AF00001220EE0C31F052B01D8022209E0A0F15C
:100B00000D03052B01D8032203E01338052800D874
:100B100004222848284E00BF50F8213046F82130E2
:100B2000491CC9B21829F7D3244C521E042A18D2E2
:100B3000002502EB420700BF05EB470001A956F86C
:100B400020206846FFF7A2FD04EB45009DF8001049
:100B500081706D1C9DF80410EDB2C170062DEBD3B1
:100B60000AE000204FEA000104EB4002401C9170B3
:100B7000C0B2D1700628F7D37B202070302060707F
:100B800000210120225C401CC0B211440E28F9D380
:100B9000642091FBF0F200FB1210A0737D20E07343
:100BA0004FF6FF7310220549054801F0B7FEBDE876
:100BB000FC81000000000408A4000020DC030020E9
:100BC000B802002010B500F021FE0E4801210022DD
:100BD000C0E900210622C0E90221022101610A497F
:100BE00000F080FD40B10948016841F480110160C6
:100BF000BDE8104000F0C2BD18220549054802F0CA
:100C0000E4F9F5E7EC030020640000206800002010
:100C10000400002000000408F0B58BB00646002058
:100C20000690044608AF6D460790022108A8FFF71A
:100C30002FFC10B101200BB0F0BD57F8201000EED2
:100C4000101A00EB440105EB8101B8EE400A401C8C
:100C5000022881ED000AF0DB641C032CE5DB002197
:100C60000DF1180201EBD17020F00100081A02EB1F
:100C7000800005EB810390ED000AD3ED000A491CCA
:100C8000062930EE200A80ED000AEBDB0020B0EEF2
:100C9000080A00BF02EB8001D1ED000A06EB8001DB
:100CA000401C80EE801A022881ED001AF2DB002041
:100CB000C1E70000F0B58BB0064600200690044660
:100CC00008AF6D460790022108A8FFF70BFC10B192
:100CD00001200BB0F0BD57F8201000EE101A00EB09
:100CE000440105EB8101B8EE400A401C022881ED69
:100CF000000AF0DB641C032CE5DB00210DF1180277
:100D000001EBD17020F00100081A02EB800005EB26
:100D1000810390ED000AD3ED000A491C062930EE4C
:100D2000200A80ED000AEBDB0020B0EE080A00BFCD
:100D300002EB8001D1ED000A06EB8001401C80EE41
:100D4000801A022881ED001AF2DB0020C1E702219F
:100D5000FFF762BF70B50E494FF47A700024486007
:100D6000401EFDD148600B4D1021284600F052FE78
:100D700004442021284600F04DFE04EB40044021AD
:100D8000284600F047FE04EB8000C0B270BD0000B2
:100D900090000020000402400221FFF78BBF0000FA
:100DA00078B50024009490F83C20012A19D0012243
:100DB00080F83C200A6807230568092A13D9EE68E1
:100DC0000A3A02EB420293409E43EE600B788A6837
:100DD0000A3B03EB43039A400368DD682A43DA6069
:100DE00010E0022078BD2E6902EB420293409E4340
:100DF0002E610B788A6803EB43039A4003681D69F0
:100E00002A431A614A681F23072A13D205686E6BAA
:100E1000521E02EB820293409E436E630B790A8856
:100E20005B1E92B203EB83039A4003685D6B2A4317
:100E30005A6327E005680D2A12D22E6BD21F02EBEF
:100E4000820293409E432E630B790A88DB1F92B285
:100E500003EB83039A4003681D6B2A431A6311E076
:100E6000EE6A0D3A02EB820293409E43EE620B79EA
:100E70000A880D3B92B203EB83039A400368DD6A54
:100E80002A43DA62164B0568144A9D4206D10D6862
:100E9000122D03D1556845F48005556005689D42C3
:100EA00018D10B68102B01D0112B13D1536843F4C8
:100EB00000035360096810290CD10A490A4A0968DD
:100EC000B1FBF2F101EB8101490000E0491E009104
:100ED0000029FBD180F83C40002078BD0023014070
:100EE000002001408C00002040420F000068C06CD0
:100EF000704770B504004FF0000503D0206C002649
:100F000010B107E0012070BD204600F01DF86664B6
:100F100084F83C60206CC00610D4206C20F488500B
:100F200040F0020020642046FFF71EFA6664206C41
:100F300020F0020040F00100206400E0012584F868
:100F40003C60284670BD000030B587B004461421CF
:100F50006846FFF77FF91E4A24681C4D00231C4891
:100F6000143A0321AC4215D1046844F4807404603F
:100F7000006800F480700590106840F00200106076
:100F80001068009100F002000590CDE90113694658
:100F9000104817E0104DAC4216D1046844F4806448
:100FA0000460006800F480600590106840F0010063
:100FB00010601068009100F001000590CDE9011368
:100FC0006946064800F04EFC07B030BD00200140E5
:100FD0004438024000040240002201400000024068
:100FE0002DE9F041044600680D4681684FF0000786
:100FF00049050BD58068C00508D5206C40F020005D
:10100000206484F83C700120BDE8F08100F014FDFC
:1010100006460FE0681C0DD025B100F00DFD801BC9
:10102000A84207D9206C40F00400206484F83C708A
:101030000320E9E7206800688007EBD521686FF09E
:1010400012000860206C40F4007020642068816801
:1010500011F0405F13D1217E89B9C16A11F4700F7C
:1010600002D0806840050AD4206C20F4807020648F
:10107000206CC00403D4206C40F0010020640020E8
:10108000C2E7000018B50021009190F83C20012A29
:1010900007D0012280F83C2002689368DB0702D069
:1010A00011E0022018BD936843F0010393602A4ABF
:1010B0002A4B1268B2FBF3F202EB420200E0521E2E
:1010C0000092002AFBD102689368DB0741D0036CD1
:1010D00040F20164A34343F48073036453685B05E7
:1010E00005D5036C23F4005343F480530364036C6D
:1010F000DB0404D5436C23F00603436400E0416441
:1011000080F83C1016496FF02203136049680068AC
:10111000CA06144906D088421BD1816811F0405F8D
:1011200013D016E08842F8D00F4A904203D1D1F88C
:101130000423D206F1D00D4A90420AD1D1F804130B
:1011400001F01F011029E8D303E0816841F08041DC
:101150008160002018BD00008C00002040420F007C
:1011600000230140002001400021014000220140F5
:1011700070472DE9F05F0546006800244669D0F805
:1011800004908768D0F80CB0D0F810A0D0F8188080
:10119000F10748D0F90714D001218160B80703D5C1
:1011A000284600F0C5F90CE0780702D54FF400643A
:1011B00007E0380702D54FF4805402E0284600F0DB
:1011C000B6F9F80516D529684FF480708860B8051F
:1011D00003D5284600F0AEF90CE0780502D544F4BA
:1011E000005407E0380502D544F4804402E0284664
:1011F00000F09FF9F80316D529684FF48030886015
:10120000B80303D5284600F097F90CE0780302D51F
:1012100044F4004407E0380302D544F4803402E08B
:10122000284600F088F9300707D55FEACB6004D57F
:101230002968102044F40074C86070074FF0080754
:1012400007D55FEA0B7004D52868C760284600F010
:1012500069F9B00706D52868C068800702D028461B
:1012600000F061F9700607D55FEACA6004D5296805
:10127000102044F480640861B00607D55FEA0A7064
:1012800004D528680761284600F04EF9F00606D517
:1012900028680069800702D0284600F046F9B003AC
:1012A00008D55FEAC96005D529681020486028463E
:1012B00000F03CF9F00307D55FEA097004D528680F
:1012C0004760284600F039F9300446D55FEA497096
:1012D00040D5F00504D55FEAC87001D044F00104A0
:1012E000B00504D55FEA887001D544F002047005AA
:1012F00004D55FEA487001D544F00404300529D5CF
:1013000018F0700F26D008F07000402815D006DCC9
:10131000102809D020280AD0302816D10AE05028F9
:101320000ED0602811D10EE044F008040DE044F026
:1013300010040AE044F0200407E044F0400404E014
:1013400044F0800401E044F480742868816921F04D
:1013500070018161296804204860002C05D0686A0A
:10136000204368622846FFF703FFBDE8F09F70B591
:10137000040003D094F8200010B104E0012070BDF7
:10138000204600F081F82068016821F00201016028
:1013900000F052FB0546052604E000F04DFB401B23
:1013A0000A2811D8206840688007F6D420680168B0
:1013B00041F00101016000F03FFB05460BE000F049
:1013C0003BFB401B0A2806D9606A40F4003060628B
:1013D00084F82060D2E720684068C007EFD0207E04
:1013E0000128206801683DD021F080010160607E05
:1013F00001282068016838D021F040010160A07EFA
:1014000001282068016833D021F020010160E07ECE
:101410000128206801682ED041F010010160207F72
:1014200001282068016829D021F008010160607F4F
:1014300001282068016824D021F004010160D4E96A
:1014400002010843D4E90412114308436168491EAC
:1014500008432168C86100206062012084F82000F0
:10146000002070BD41F08001C0E741F04001C5E7B8
:1014700041F02001CAE721F01001CFE741F0080157
:10148000D4E741F00401D9E710B586B00446142131
:101490006846FEF7DFFE20492068884239D11F48A0
:1014A0000021026842F000720260006800F00070E3
:1014B00005901A481038026842F001020260006884
:1014C00000F0010005904FF4C05000900220CDE9DB
:1014D000010103200390092004906946104800F0A0
:1014E000C1F900220221142000F016FB142000F0A4
:1014F00005FB00220221152000F00EFB152000F054
:10150000FDFA00220221162000F006FB162000F052
:10151000F5FA06B010BD00000064004040380240FB
:10152000000002407047704770477047704770472F
:1015300070477047704770477047704770B5437980
:10154000012B1AD0012646710223037105682C680D
:1015500040F6FE7393409C43D1E900310B43934026
:1015600023432B6001680B68C0249440A3430B60A5
:10157000067100214171084670BD022070BD0068EF
:1015800009B1006B7047C06A704770B5040003D0A2
:101590002079002510B105E0012070BD657120465D
:1015A00000F008F802202071256101202071002040
:1015B00070BD000010B586B0044614216846FEF7E1
:1015C00049FE1149206888421CD110480021026858
:1015D00042F000520260006800F0005005900B4895
:1015E0001038026842F001020260006800F0010059
:1015F0000590202000900320CDE9010169460448B0
:1016000000F030F906B010BD0074004040380240D0
:101610000000024018B5046800940068104421B12D
:10162000143000900360002018BD0830F9E730B591
:101630004279012A16D00122427102230371036804
:101640001D6802FA01F425431D60002901680B683A
:101650000AD00C6803F4802304F46014B3F5802FDF
:101660000FD015E0022030BD0C6803F0040304F035
:101670003804042B0CD1382C0AD14B6843F00103F9
:1016800005E0B4F5601F03D14B6843F002034B60E3
:10169000027100214171084630BD90F835100229D1
:1016A00003D08021416501207047052180F8351065
:1016B0000068016821F0010101600020704700000E
:1016C00070B5044600F0B8F90546601C02D0044825
:1016D0000078044400F0B0F9401BA042FAD370BD7A
:1016E000800000202DE9F047044622480F46017E85
:1016F00001290AD00121804601764CF25039484632
:10170000FFF788F9020003D02FE00220BDE8F08740
:101710004FF0FF3038602068174D012801D0A668CF
:101720001CE0207C6168FFF7E5F84846FFF772F996
:101730000246286820F00400286014E0217C30462E
:10174000FFF786F84846FFF765F90200286820F0A1
:10175000FA00286001D03E6005E0761CD4E9021052
:101760000844B042EAD8FFF79BF8002188F8181027
:101770001046CBE7F8020020103C02400348016805
:1017800041F000410160002070470000103C024021
:101790002DE9F0471B4E05461446307E1F4689460C
:1017A000012808D0012030764CF250384046FFF72F
:1017B00031F918B114E00220BDE8F0879DB1012D88
:1017C00016D0022D19D022463B464846FFF7B6F800
:1017D0004046FFF71FF90C490A6822F001020A602F
:1017E00000213176E8E7E1B24846FFF797F8EFE7E6
:1017F000A1B24846FFF7B6F8EAE721464846FFF7A8
:10180000C3F8E5E7F8020020103C02400749002039
:101810000A68002A09DA054A054B0C3A1360054BA1
:1018200013600968002900DA01207047103C02406B
:1018300023016745AB89EFCD10B5FFF78BFA02495D
:1018400081F8C00010BD000018030020044910B545
:101850000A68024202D00860FFF7EEFF10BD0000E8
:10186000143C01402DE9F84FDFF87CB100224FF025
:1018700001084FF0030A4FF00F090BF1040E00BFEF
:101880000B6808FA02F42340A3426ED14D68022D82
:1018900001D0122D0ED1D50800EB850CDCF82050BC
:1018A0005607F70E09FA07F6B5430E69BE402E43F8
:1018B000CCF82060066855000F790AFA05FC07F09D
:1018C000030726EA0C06AF40374307604E68012E37
:1018D00005D0022E03D0112E01D0122E0ED1866813
:1018E000CF6826EA0C06AF40374387604668A643B8
:1018F0000C79C4F30014944034434460C6688C6887
:1019000026EA0C06AC403443C4604C68E40065D55C
:10191000364C256845F480452560246822F003058F
:1019200004F480440094324C2E19D6F808489507E8
:101930002F0F09FA07F5AC432E4DA84201D100251F
:1019400024E02D4DA84201D101251FE02B4DA842D6
:1019500001D102251AE02A4DA84201D1032515E044
:10196000284DA84202D1042510E037E0264DA842B8
:1019700001D105250AE0254DA84201D1062505E043
:10198000234DA84201D1072500E00825BD4025438D
:10199000C6F80858DBF800405D464E689C43F603E5
:1019A00000D51C432C60DEF8004075464E689C4311
:1019B000B60300D51C432C600B4D08352C684E68CF
:1019C0009C43F60200D51C432C60074D0C352C6857
:1019D0004E689C43B60200D51C432C60521C102A52
:1019E000FFF44EAFBDE8F88F003C014044380240A0
:1019F00000300140000002400004024000080240A4
:101A0000000C024000100240001402400018024086
:101A1000001C02400069084000D001207047426964
:101A200031EA020200D10904816170470AB1816183
:101A300070470904FBE70000014880687047000018
:101A4000800000200248816802781144816070475C
:101A5000800000200B4810B5016841F4007101605E
:101A6000016841F480610160016841F480710160A6
:101A7000032000F071F8002000F006F800F024F8D0
:101A8000002010BD003C024070B50D4D04464FF4DF
:101A90007A712878B1FBF0F00A490968B1FBF0F0DF
:101AA00000F0E2FA48B9102C07D200222146501E5D
:101AB00000F032F800206C6070BD012070BD0000A5
:101AC000800000208C0000200B4882B0016841F4A7
:101AD00080410160006800F4804000900648001FCB
:101AE000016841F080510160006800F08050009072
:101AF000052002B000F030B844380240002809DB6D
:101B000000F01F02012191404009800000F1E02017
:101B1000C0F8001170470000F0B40E4B1B680C4673
:101B2000C3F30223C3F10705042D00D90425191DB1
:101B3000072901D2002300E0DB1E012606FA05F189
:101B4000491E214099409E40761E16403143F0BC0C
:101B500001F025BF0CED00E0064900F0070208681F
:101B60004FF6FF03184040EA0220034A1043086082
:101B7000704700000CED00E00000FA052DE9F04789
:101B80000E46050065D0DFF81481D8F80000F7B2E2
:101B900000F00F00B04207D288F80070D8F80000BB
:101BA00000F00F00B04254D128683D4C810712D597
:101BB000400703D5206840F4E050206028780007F3
:101BC00003D5206840F4604020602068A96820F0B8
:101BD000F000084320602878C0072DD0304968689D
:101BE0000839012812D0022813D0032811D009681F
:101BF000890700292DDA216821F0030101432160C2
:101C0000FFF71AFF814641F2883A0EE0096889031E
:101C1000EFE709688901ECE7FFF70EFFA0EB090188
:101C2000514502D90320BDE8F0872068696800F0BB
:101C30000C00B0EB810FEFD1D8F80010404601F056
:101C40000F01B14207D90770006800F00F00B042E1
:101C500001D00120E7E72878400705D52068E9682A
:101C600020F4E050084320602878000706D520685B
:101C7000296920F4604040EAC100206000F036F895
:101C80002168084AC1F30311515CC8400649086045
:101C90000020FFF7F9FE0020C5E70000003C0240ED
:101CA000083802407C3A00088C00002004480549AE
:101CB00000680968044AC1F38221515CC84070473A
:101CC0008C000020083802408C3A0008044805497E
:101CD00000680968044AC1F34231515CC84070474A
:101CE0008C000020083802408C3A0008154810B5D6
:101CF000006810F00C02144813D04110042A0FD0D1
:101D0000082A0ED10F4C241F2268236802F03F02DC
:101D10005B0207D52068C0F38810A0FB010106E034
:101D2000084610BD2168C1F38811A1FB0001002302
:101D3000FEF746FA2168C1F30141491C4900B0FB96
:101D4000F1F010BD083802400024F4002DE9F84FEE
:101D5000050076D02878DFF8F8B2BE4CC00749D02D
:101D6000DBF800105846C1F38101012908D0006852
:101D7000C0F3810002280AD1201D0068400206D568
:101D80002068800336D568680028E2D032E06868B1
:101D9000B0F5803F10D0B0F5A02F206810D020F40F
:101DA00080302060206820F4802020606868A0B126
:101DB000FFF742FE06460CE0206840F48030F4E76E
:101DC00040F480202060F7E7FFF736FE801B642890
:101DD00073D820688003F7D50CE0FFF72DFE064688
:101DE00005E000BFFFF728FE801B6428F0D82068BC
:101DF0008003F7D42878DFF8608280074FF000096D
:101E00003ED5DBF80010584611F00C0F09D00068E1
:101E1000C0F3810002280BD18D48001F00684002EA
:101E200006D42068800715D5E868012809D111E09B
:101E3000E868B8B10120C8F80000FFF7FDFD0646CC
:101E400005E002E1FFF7F8FD801B0228C0D82068FA
:101E50008007F7D52068296920F0F80040EAC10022
:101E600020600DE0C8F80090FFF7E6FD064604E0AC
:101E7000FFF7E2FD801B02281FD820688007F7D4F7
:101E80002878000722D5724E744869696C3671B1A2
:101E900001210160FFF7D0FD074604E0FFF7CCFD0C
:101EA000C01B022809D830688007F7D50EE0C0F8BB
:101EB0000090FFF7C1FD074605E083E0FFF7BCFD9A
:101EC000C01B02287ED830688007F7D428784007E6
:101ED00068D5DFF87CA100270AF1380ADAF800009B
:101EE000C0000BD4DAF8001041F08051CAF800109D
:101EF000DAF80000012700F080500090584E30685A
:101F0000C00510D4306840F480703060FFF794FD55
:101F1000009005E0FFF790FD0099401A022851D883
:101F20003068C005F6D54A4EA868683601280FD03B
:101F30000528306810D020F001003060306820F0B3
:101F400004003060A868B8B1FFF776FD00900FE09C
:101F5000306840F00100F4E740F004003060F7E73B
:101F6000FFF76AFD0099411A41F28830814264D836
:101F700030688007F4D50EE0FFF75EFD009007E0C3
:101F8000FFF75AFD0099411A41F28830814254D836
:101F900030688007F4D42FB1DAF8001021F08051B6
:101FA000CAF80010A869C0B3DBF80010C1F38101C2
:101FB00002294AD00228484607D0C8F86000FFF737
:101FC0003BFD00E039E005463AE04746C8F86000CE
:101FD000FFF732FD064604E0FFF72EFD801B0228C6
:101FE0002BD820688001F7D4D5E907010843A96AF6
:101FF0001C4A490802EB01416A6A41EA821108431E
:1020000095F82C1040EA01611148001F0160012081
:102010003866FFF711FD054605E014E0FFF70CFDFB
:10202000401B022809D820688001F7D50BE000BFCB
:10203000FFF702FD401B022802D90320BDE8F88FFC
:1020400020688001F4D40020F8E70120F6E70000C2
:10205000083802400038024000004742800E4742E4
:10206000007000400000FFFF10B5401EB0F1807FFF
:1020700001D3012010BD4FF0E02460610F216017F3
:1020800001F08DFC0020A06107202061002010BD20
:102090007047704710B590F83C20012A22D00122E9
:1020A00080F83C20CA688C6822F4407222434C6855
:1020B00022F4806222430C6822F4006222430C69FD
:1020C00022F4805222434C6922F400522243C9690F
:1020D000002322F480420A4301684A6480F83C30BD
:1020E000002010BD022010BD70B590F83C20012AE0
:1020F00019D0012400F83C4F0222427050F83C3CB9
:102100005A689D6822F070060A684968324325F0D3
:10211000800529435A6050F83C2C9160447000219E
:102120000170084670BD022070BD10B5040003D0D8
:1021300094F83D0010B107E0012010BD002084F8A4
:102140003C00204600F00CF8022084F83D00211DE0
:10215000206801F01BF8012084F83D00002010BD2C
:1021600008B500680B49884212D10B48016841F458
:10217000807101600068022200F4807000900321E9
:102180002D20FFF7C9FCBDE808402D20FFF7B6BCA5
:1021900008BD000000200040403802400168CA68C5
:1021A00042F00102CA600068816801F00701062957
:1021B00003D0016841F001010160002070472DE962
:1021C000F0410D46040003D094F83D0018B108E03A
:1021D0000120BDE8F081002084F83C00204600F09A
:1021E0003BF8022084F83D002068816844F2070231
:1021F00091438160211D206800F0C8FF226890682B
:102200009169166A2B68AF69034340F2033081433A
:1022100041EA0721A868EF6908434FF6FC4188436B
:10222000E96840EA0720014328692F6A000140EA73
:102230000730084369686D6926F0AA0646EA051565
:10224000294393602268906120680162012084F82C
:102250003D000020BDE7000010B586B00446142103
:102260006846FDF7F7FF16492068884226D11548D1
:102270000021026842F002020260006800F00200E1
:10228000059010481038026842F0010202600068B0
:1022900000F001000590C02000900220CDE901016E
:1022A000CDE9031069460848FFF7DCFA0022012156
:1022B0001D20FFF731FC1D20FFF720FC06B010BDEC
:1022C000000400404038024000000240704770B5F2
:1022D0000446006801694FF00005C943890715D419
:1022E000C168C943890711D4E91E01610120207723
:1022F000206880698007204602D0FFF7E7FF04E0EE
:1023000000F0C2F8204600F057F9257720680169EF
:10231000C943490717D4C168C943490713D46FF0AB
:1023200004010161022020772068806910F4407F59
:10233000204602D0FFF7CAFF04E000F0A5F82046CF
:1023400000F03AF9257720680169C943090716D4D6
:10235000C168C943090712D46FF008010161042064
:1023600020772068C0698007204602D0FFF7AEFFC3
:1023700004E000F089F8204600F01EF92577206877
:102380000169C943C90617D4C168C943C90613D432
:102390006FF010010161082020772068C06910F4F7
:1023A000407F204602D0FFF791FF04E000F06CF878
:1023B000204600F001F9257720680169C943C90763
:1023C00008D1C168C943C90704D1891E01612046EB
:1023D00000F016F920680169C943090609D4C168EB
:1023E000C943090605D46FF0800101612046FFF75B
:1023F0004FFE20680169C943490609D4C168C94331
:10240000490605D46FF040010161204600F050F903
:1024100020680169C94389060BD4C168C94389068C
:1024200007D46FF0200101612046BDE87040FFF73E
:1024300030BE70BD10B586B0044614216846FDF765
:1024400009FF0E492068884216D10D480021026814
:1024500042F001020260006800F0010005904FF4B4
:10246000407000900220CDE901010120CDE9031068
:1024700069460448FFF7F6F906B010BD00000140B8
:102480003038024000000240704770B5044690F8B2
:102490003C000D4601280DD0012684F83C60022046
:1024A00084F83D0042B1042A18D0082A2AD00C2A08
:1024B0004DD139E0022070BD206800F0D9FE2068BF
:1024C000816941F0080181612068816921F004017E
:1024D0008161206881692A69114311E0206800F058
:1024E000F7FE2068816941F400618161206881699B
:1024F00021F480618161206881692A6941EA0221B1
:10250000816124E0206800F019FF2068C16941F072
:102510000801C1612068C16921F00401C16120681E
:10252000C1692A69114311E0206800F03BFF20686F
:10253000C16941F40061C1612068C16921F4806111
:10254000C1612068C1692A6941EA0221C16184F838
:102550003D60002084F83C0070BD10B5040003D03D
:1025600094F83D0010B107E0012010BD002084F870
:102570003C00204600F00CF8022084F83D00211DAC
:10258000206800F003FE012084F83D00002010BD0B
:1025900008B500680649884208D10648016841F03C
:1025A00001010160006800F00100009008BD00001A
:1025B00000000140443802407047000010B5044656
:1025C0000068012200F046FE0B492068884202D0D4
:1025D0000A49884203D1416C41F4004141642068BA
:1025E000816801F00701062903D0016841F001016B
:1025F0000160002010BD0000000001400004014007
:1026000030B5254C0546006821689DB0884214D13C
:102610003D2221460DA8FDF704FE94F83D008DF8FB
:102620007100342210A96846FDF7FBFD0DF1340C52
:102630001A489CE80E00FEF77FF8194928680968D7
:10264000884226D117490868401C0860401C00D108
:1026500008603D2210490DA8FDF7E3FD94F83D0008
:102660008DF87100342210A96846FDF7DAFD0DAD32
:102670000A4895E80E00FEF7D1F80B48FEF78CFBF0
:102680000A48FEF764FB1DB00448BDE8304000F086
:10269000BBBB1DB030BD0000380200201803002075
:1026A00078020020900000206C00002074000020C0
:1026B0007047704770B5026804461068D168536966
:1026C00010F00F0F50D003F0010501F49076354360
:1026D0005DD0C20705D0CA0503D5E26B42F0010206
:1026E000E263420705D5DA0703D0E26B42F002024B
:1026F000E263820705D5DA0703D0E26B42F00402F9
:10270000E263020705D5DA0703D0E26B42F0080264
:10271000E263E26B002A33D0800604D5880602D536
:10272000204600F07DFE20684069E16BC0F3801018
:10273000090700D428B3204600F064FE20684169F0
:1027400049061AD5416921F040014161606BA0B191
:102750001B490165606BFEF7A0FF002810D0606B7D
:10276000016DBDE870400847830610D58B060ED575
:102770002046BDE8704000F053BE2046FFF799FFA9
:1027800070BD2046FFF795FF0020E06370BD030693
:1027900006D50B0604D52046BDE8704000F0E2BF28
:1027A0004006F3D54806F1D5D168204621F0400116
:1027B000D160202184F8391000F00DF970BD0000BF
:1027C000F533000870B5040004D094F839000025F2
:1027D00010B106E0012070BD84F83850204600F0AA
:1027E00023F8242084F839002068C16821F40051BE
:1027F000C160204600F060FE2068016921F490412C
:1028000001612068416921F02A0141612068C168A5
:1028100041F40051C160E563202084F8390084F858
:102820003A00002070BD000010B586B004461421A7
:102830006846FDF70FFD17492068884228D11648E1
:10284000016841F400310160006800F40030059037
:1028500011481038016841F00101016000686946C3
:1028600000F0010005900C20009002200190012052
:10287000029003200390072004900848FEF7F2FF1F
:10288000022211462620FFF747F92620FFF736F9E6
:1028900006B010BD00440040403802400000024035
:1028A00090F83A30202B22D1F9B1F2B190F83830BB
:1028B000012B1CD081628285C2850021C163222246
:1028C00080F83A2080F838100168CA6842F48072B3
:1028D000CA6001684A6942F001024A610068C16841
:1028E00041F02001C16000207047012070470220A4
:1028F0007047000010B5044601220649FFF7D0FFDB
:102900000548844205D1034C207800F08FFFFF205A
:10291000207010BD7C000020B80200202DE9F84393
:10292000044690F839001F4616460D46202850D11F
:10293000A5B19EB194F8380001284AD0012084F84E
:1029400038004FF00008C4F83C80212084F839009A
:10295000FFF772F8A6848146E68426E00120BDE8F0
:10296000F883E08C401EE084A0684B46B0F5805FA1
:102970004FF000024FF080012046009703D000F096
:1029800022FFE8B90DE000F01EFFC8B928882168D1
:10299000C0F308004860206908B16D1C05E0AD1C5B
:1029A00003E0216815F8010B4860E08C0028D8D1BD
:1029B0004B46002240212046009700F004FF08B15A
:1029C0000320CCE7202084F8390084F838800020E8
:1029D000C5E70220C3E77047FEE700007FB500218E
:1029E0001B48009101910291184A03910260012451
:1029F0004FF480320461C0E90121017680F8201093
:102A0000144AC0E90A210225C561C16080F830106E
:102A10004461FEF76EFA08B1FDF718FF0820CDE912
:102A200000040620029069460948FEF7B9F908B18A
:102A3000FDF70CFF0920CDE9000569460448FEF7C3
:102A4000AFF9002801D0FDF701FF7FBD0020014054
:102A50002C0100200100000F7FB500241A480094CB
:102A60000194029417490394016001254FF48031C9
:102A70000561C0E90114047680F820401349C0E9DB
:102A80000A140226C661C46080F830404561FEF732
:102A900030FA08B1FDF7DAFE07200094CDE90150C5
:102AA00069460948FEF77CF908B1FDF7CFFECDE98C
:102AB000005669460448FEF773F9002801D0FDF777
:102AC000C5FE7FBD00220140740100200100000FFF
:102AD0000D4810B50B490160102141600021816053
:102AE000C16001614161017641768176C1760177ED
:102AF0004177FEF73CFC002803D0BDE81040FDF70D
:102B0000A5BE10BD00640040BC0100201CB500241F
:102B10000C4900940A48019408600846FEF735FD08
:102B200008B1FDF793FE0094102269460548019410
:102B3000FEF704FD002801D0FDF788FE1CBD000053
:102B400000740040E4010020F0B587B0142168460D
:102B5000FDF780FB3B480024016841F080010160E3
:102B6000016801F080010591016841F001010160F7
:102B7000016801F001010591016841F00401016063
:102B8000016801F004010591016841F00201016052
:102B900000682D4E00F00200059000224FF4D05145
:102BA0003046FEF743FF294F012208213846FEF741
:102BB0003DFF102000902648CDE9010469463046CB
:102BC000FEF750FEB01500902248CDE90104694699
:102BD0003046FEF747FE01257015CDE90005694630
:102BE0003046CDE90245FEF73DFE4FF4C05000905F
:102BF000CDE90154694630460394FEF733FE0820C0
:102C0000CDE9000569463846CDE90245FEF72AFEC2
:102C100070208DE8310069463846FEF723FE002219
:102C200001210A20FEF778FF0A20FEF767FF002245
:102C300001211720FEF770FF1720FEF75FFF07B096
:102C4000F0BD00003038024000080240000402409D
:102C500000001110000021100B4810B50949016057
:102C6000A721416000214FF4FA72C0E9021201610C
:102C70008161FFF75AFA002803D0BDE81040FDF744
:102C8000E5BD10BD002000407802002010B592B0D4
:102C900000240F941C2168461094FDF7DBFA2021D4
:102CA00007A8FDF7D7FA2448224901600321C0E9AB
:102CB00001144FF47A71C0E9031444618461FFF791
:102CC0004CFC08B1FDF7C2FD0F940FA91A481094EF
:102CD000FFF70AFA08B1FDF7B9FD7020CDE900044D
:102CE00002940394049405940022694612480694C1
:102CF000FFF7CBFB08B1FDF7A9FD042269460E489A
:102D0000FFF7C3FB08B1FDF7A1FD079408940994F0
:102D10004FF400500A94CDE90B4007A906480E94E1
:102D2000FFF7B8F908B1FDF791FD0348FFF782FB03
:102D300012B010BD00000140F801002010B58CB0A9
:102D400024216846FDF786FA0024164809941449A0
:102D50000A9401600121C0E901144FF6FF72C0E935
:102D6000032484610320CDE9000402910520CDE90C
:102D70000340CDE90541CDE9074069460948FFF721
:102D80001EFA08B1FDF762FD099409A905480A94E5
:102D9000FFF7AAF9002801D0FDF758FD0CB010BDCF
:102DA00000040040380200200C4810B50A490160B8
:102DB0004FF4E1314160002181600C22C160C0E923
:102DC00004128161C161FFF7FDFC002803D0BDE85A
:102DD0001040FDF73BBD10BD00440040B80200208C
:102DE000FEE710B531280DD002DC20280AD104E01E
:102DF000412807D0602805D102E0FDF7B5FC01E0CD
:102E0000FDF7C4FB002010BD2DE9F0410446007B16
:102E10000023143000F0FF0C18461A4601461E46E7
:102E20005FF01405ACEB060797FBF5FE05FB1E777C
:102E300004EB8707D7F810E00CEB06071EEB030343
:102E400040EBEE7007F10107B7FBF5FE05FB1E77BF
:102E500004EB870706F10106D7F810E0F6B21EEB87
:102E6000020241EBEE71052EDCD39B1A444E60EB5F
:102E70000100A3FB062700FB0670002103FB0101F4
:102E80001046FDF7F2F900EE900A9FED3E1A80EE33
:102E9000810A10EE100A84ED190AB0F13F4F01D9F2
:102EA000FF2007E010EE100AB0F17C5F01DD012089
:102EB00000E0002084F8600094F8B800BDEEC00A7D
:102EC000401CC0B2B0FBF5F105FB110084F8B8005E
:102ED00004EB800080ED1A0A94ED190AB5EEC00AE1
:102EE000F1EE10FA03D2B1EE400A84ED190A94F81B
:102EF000B8001430002300F0FF0C18461A460146B3
:102F00004FEA0306ACEB060797FBF5FE05FB1E77C1
:102F100004EB8707D7F868E00CEB06071EEB03030A
:102F200041EBEE7107F10B07B7FBF5FE05FB1E77D2
:102F300004EB870706F10106D7F868E0F6B21EEB4E
:102F4000020240EBEE70052EDCD30025D2F13C06E8
:102F5000854105DB6FF03B05551B70F1FF3508DA45
:102F60009A1A61EB00011046FDF77FF9C4F8BC0026
:102F700003E09FED050A84ED2F0A0120BDE8F081F2
:102F8000C0D40100EB46914B0000000070470000E8
:102F900010B5FDF7C3FB0B49094808605FF000015D
:102FA00050F82120521C0AD1491CC9B21829F7D364
:102FB00004491822BDE81040091D00F006B810BDF4
:102FC0000000040800000020704770B516460D464A
:102FD0000446B0F1006F1AD3A00718D1FEF716FC13
:102FE00004EB86064CF25030FDF714FD48B10AE0C0
:102FF0000023214602202A68FEF7CAFB18B9241DC7
:103000002D1DB442F4D3BDE87040FEF7B7BB70BDD0
:103010007047000010B5FFF7BBFF012215491648A5
:10302000FFF73EFC4FF47A63002210211348FEF7AD
:10303000F1FA10211148FEF7FAFA1148FFF7AEF83D
:10304000012251020F48FEF7F1FCFDF783FE0E4905
:1030500081F8C0000D480021416381630C48FFF7EF
:10306000ADFA04210A48FFF7A9FABDE81040094863
:10307000FFF794B87C000020B8020020E401002093
:103080003802002000080240180300200000014020
:10309000F801002078020020FEF7D4BC30B593B0D0
:1030A00030216846FDF7D6F814210CA8FDF7D2F8B8
:1030B00019480025016841F080510160006800F066
:1030C000805011901548016841F48041016000680A
:1030D000022400F4804011900120039010200490FD
:1030E000009406940820CDE90750A820CDE90904F2
:1030F00004200B906846FEF729FE0CA90F2081E8FA
:1031000031004FF4A0500F90E002109005210CA860
:10311000FEF734FD13B030BD40380240007000406F
:103120001048016841F4700101600F48016841F0E6
:10313000010101600C4A00210832116002680B4B4A
:103140001A400260031D0A4A1A60026822F48022B3
:10315000026005480C300160024958068039086059
:103160007047000088ED00E000380240FFFFF6FEE7
:10317000103000240148FFF7AAB8000038020020F0
:103180000148FFF7A4B8000078020020F0B50268FB
:10319000254C264D264E274F274B4FF0804CA04202
:1031A00009D0604507D0A84205D0B04203D0B8424C
:1031B00001D0984204D122F0700E4A6842EA0E0211
:1031C000A0421BD0604519D0A84217D0B04215D0FC
:1031D000B84213D0984211D0184DA8420ED0184DC5
:1031E000A8420BD0174DA84208D0174DA84205D0D1
:1031F000164DA84202D0164DA84203D122F44075C4
:10320000CA682A434D6922F080022A4302608A6814
:10321000C2620A688262A04201D0984201D1096963
:10322000016301214161F0BD000001400004004044
:1032300000080040000C0040000401400040014034
:10324000004401400048014000180040001C0040BC
:103250000020004010B501F01F030121046A9940CD
:103260008C430462016A9A401143016210BD000060
:10327000F0B5026A22F001020262036A42688469C0
:10328000124E24F073050C682C4323F002058B6862
:103290002B430D4DA84201D0B04205D123F00807C1
:1032A000CB683B4323F00403A84201D0B04205D1D0
:1032B0004D6922F4407215438A692A434260846151
:1032C000496841630362F0BD000001400004014011
:1032D000F0B5026A22F010020262026A4368846951
:1032E0000D6824F4E64444EA05248D6822F02002A7
:1032F00042EA05120F4D104EA84201D0B04206D14D
:10330000CF6822F0800242EA071222F04002A8426F
:1033100001D0B04207D14D6923F4406343EA8503ED
:103320008D6943EA85034360846149688163026271
:10333000F0BD00000000014000040140F0B5026A49
:1033400022F480720262026A4368C46922F4007245
:1033500024F073050C68124E2C438D6842EA052256
:103360000E4DA84201D0B04206D1CF6822F40062CF
:1033700042EA072222F48062A84201D0B04207D17B
:103380004D6923F4405343EA05138D6943EA05135D
:103390004360C4614968C1630262F0BD000001403E
:1033A0000004014030B5026A22F480520262046ACD
:1033B0004268C3690D6823F4E64343EA05238D6838
:1033C00024F4005444EA0534084DA84202D0084DC4
:1033D000A84204D14D6922F4804242EA851242603B
:1033E000C36149680164046230BD0000000001400F
:1033F0000004014010B5806B0021C185C184FFF736
:1034000058F910BD0168CA6822F49072CA60016858
:103410004A6922F001024A61202180F83A1070477F
:1034200010B590F83A10222901D0022010BD816811
:10343000B1F5805F11D00169002901681FD049688A
:1034400001F07F03816A4A1C82620B70C18D491EA4
:103450000904090CC18518D02BE00269816A002A91
:103460000268526805D0D2B20A80816A491C816222
:10347000ECE7C2F308020A80816A891CF7E74A6810
:10348000816A4B1C83620A70E0E70168CA6822F017
:103490002002CA600168CA6822F48072CA600168AA
:1034A0004A6922F001024A61202180F83A10FFF7B0
:1034B00021FA002010BD00002DE9F041044600680B
:1034C0000169E26821F44051114301612169A0685A
:1034D000E26908436169114322680843D16849F2EF
:1034E0000C6399430143D16020684169A26921F4CA
:1034F000407111434161E2696425B2F5004F97487C
:10350000974922684FF032083FD08A4201D0824268
:103510007CD1FEF7DBFB00EBC00101EB0010616822
:103520008900B0FBF1F6FEF7D1FB00EBC00101EB27
:10353000001061688900B0FBF1F0B0FBF5F06FF0AE
:103540001801484306EB800108EB0110B0FBF5F0D1
:1035500000F0F006FEF7BAFB00EBC00101EB001033
:1035600061688900B0FBF1F0B0FBF5F006EB0016E6
:10357000FEF7ACFB00EBC00101EB001061688900B5
:10358000B0FBF1F7FEF7A2FBD2E08A4201D0824203
:103590003DD1FEF79BFB00EBC00101EB0010616821
:1035A0004900B0FBF1F0B0FBF5F00601FEF78EFB31
:1035B00000EBC00101EB001061684900B0FBF1F7BE
:1035C000FEF784FB00EBC00101EB001061684900CD
:1035D000B0FBF1F0B0FBF5F06FF01801484307EBDA
:1035E000800108EBC100B0FBF5F000F0F80006EB3D
:1035F0004006FEF76BFB00EBC00101EB00106168B9
:103600004900B0FBF1F7FEF761FB3CE055E0FEF747
:103610004DFB00EBC00101EB001061684900B0FBFD
:10362000F1F0B0FBF5F00601FEF740FB00EBC00146
:1036300001EB001061684900B0FBF1F7FEF736FBC3
:1036400000EBC00101EB001061684900B0FBF1F034
:10365000B0FBF5F06FF01801484307EB800108EB71
:10366000C100B0FBF5F000F0F80006EB4006FEF7F5
:103670001DFB00EBC00101EB001061684900B0FBCD
:10368000F1F7FEF713FB00EBC00101EB00106168DE
:103690004900B0FBF1F0B0FBF5F06FF018014843C2
:1036A00007EB800108EBC100B0FBF5F000F007006C
:1036B000216830448860BDE8F081FEF7F7FA00EB3E
:1036C000C00101EB001061688900B0FBF1F6FEF764
:1036D000EDFA00EBC00101EB001061688900B0FB5E
:1036E000F1F0B0FBF5F06FF01801484306EB8001F4
:1036F00008EB0110B0FBF5F000F0F006FEF7D6FA8B
:1037000000EBC00101EB001061688900B0FBF1F033
:10371000B0FBF5F006EB0016FEF7C8FA00EBC001AF
:1037200001EB001061688900B0FBF1F7FEF7BEFA0B
:1037300000EBC00101EB001061688900B0FBF1F003
:10374000B0FBF5F06FF01801484307EB800108EB80
:103750000110B0FBF5F000F00F00A9E700140140E4
:103760000010014090F83910212901D00220704743
:103770008168B1F5805F016A0BD04A1C0262026861
:1037800009785160C18C491E0904090CC1840ED00E
:1037900017E009880268C1F3080151600169002936
:1037A000016A02D0491C0162ECE7891CFBE7016851
:1037B000CA6822F08002CA600068C16841F0400116
:1037C000C160002070472DE9F041984617460E462B
:1037D0000446069D1DE0681C1BD02DB1FEF72CF998
:1037E000A0EB0800A84214D92068C16821F4D07168
:1037F000C1602068416921F001014161202084F805
:10380000390084F83A00002084F838000320BDE82D
:10381000F0812068006836EA000004D00020B84239
:10382000D9D00020F3E70120F9E700002DE9F041AD
:10383000454C06464348002521787D2E03D062780A
:10384000012A70D076E009296AD16560A570294601
:10385000A278835C521CD2B21944A270082AF7D312
:103860006422B1FBF2F302FB13116160027A8A4217
:1038700056D1344A4778D1789278302F38D00FDC3F
:10388000102F10D02F49202F8A78C97802EBC2035D
:1038900003EB021201EB82030DD0212F40D11EE079
:1038A000502F3DD128E0112A03D00020FCF744FE20
:1038B00036E00120FAE7A360007820280CD0212808
:1038C00002D0222804D02BE0184600F0BFF827E0F1
:1038D000184600F0ADF823E000F0C6F820E0B3F59C
:1038E000805F1DD2002210211848FDF793FE17E0DB
:1038F0001046FFF776FA13E0102A0BD0112A02D0F7
:10390000132A0DD10AE04279007902EB0020FDF77D
:10391000A9F805E00846FDF7E5F801E0FDF752F9E2
:10392000257002E0FFE7082901D9657002E04654DE
:10393000491C21707B2E02D1012060702570BDE8EA
:10394000F08100000004002098000020E401002025
:103950000148FEF7AFBE0000B802002030B40022DC
:103960000B4610290FD10121445C491C22440E2929
:10397000FAD36421B2FBF1F401FB142181737B21A2
:1039800001707D21C1739AB2014630BC4FF6FF73BE
:103990000148FEF7C3BF0000B8020020FEE7090798
:1039A000090E002804DB00F1E02080F800147047C5
:1039B00000F00F0000F1E02080F8141D704702E0D5
:1039C00008C8121F08C1002AFAD1704770470020AA
:1039D00001E001C1121F002AFBD17047FEF73AF83F
:1039E000FFF75CFBFFF7B0F8FEF7F8FFFFF734F8DE
:1039F000FFF76EF8FFF78AF8FFF748F9FFF79EF92F
:103A0000FFF72AF9FFF7D0F9FFF704FB074C4FF453
:103A10000065A61429462046FEF701F831462046E7
:103A2000FDF7FDFFC820FDF74BFEF3E7000802405D
:103A3000B0F57A7F05D8044900228A6348631046AE
:103A4000704701207047000000000140B0F57A7F08
:103A500005D8044900224A63886310467047012054
:103A6000704700000000014003484FF47A71416341
:103A7000816300207047000000000140000000004A
:103A8000000000000102030406070809000000000E
:103A900001020304B43A000800000020A400000062
:103AA000BE390008583B0008A40000206C07000045
:103AB000CE390008000000000100000001000000F5
:103AC00000000000010000000000000000000000F5
:103AD00000000000000000000000000000000000E6
:103AE00000000000000000000000000000000000D6
:103AF00000000000000000000000000000000000C6
:103B000000000000000000000000000000000000B5
:103B100000000000000000000000000000000000A5
:103B20000000000000000000000000000000000095
:103B30000000000001000000100000000000000074
:103B40000024F40000000000102700000000000026
:083B500000000000000000006D
:040000050800018965
:00000001FF
