:020000040800F2
:10000000E00500209D0100083B1E00085D1A000865
:10001000391E0008D1030008612500080000000017
:100020000000000000000000000000003F1E00086B
:10003000F9030008000000003D1E0008411E0008F2
:10004000B7010008B7010008B7010008B7010008B0
:10005000B7010008B7010008B7010008B7010008A0
:10006000B7010008B7010008FB030008B70100084A
:10007000B7010008B7010008B7010008B701000880
:10008000B7010008B7010008B7010008B701000870
:10009000D5030008E1030008ED030008010400088F
:1000A000B7010008B7010008B7010008B701000850
:1000B000B70100081D1F0008B7010008B7010008BC
:1000C000B7010008B7010008B7010008B701000830
:1000D000B7010008B701000855250008B70100085E
:1000E000B7010008B7010008B7010008B701000810
:1000F000B7010008291F0008B7010008B701000870
:10010000B7010008B7010008B7010008B7010008EF
:10011000B7010008B7010008B7010008B7010008DF
:10012000B7010008B7010008B7010008B7010008CF
:10013000B70100080000000000000000B70100083F
:10014000B7010008B7010008B7010008B7010008AF
:10015000B7010008B7010008B7010008B70100089F
:10016000B7010008B7010008B7010008B70100088F
:10017000B7010008B70100080000000000000000FF
:10018000B7010008B7010008DFF80CD000F07AF8DA
:1001900000480047A1250008E005002006488047E8
:1001A00006480047FEE7FEE7FEE7FEE7FEE7FEE75C
:1001B000FEE7FEE7FEE7FEE7C91E0008890100082A
:1001C0002DE9F05F0546002092469B46884606468C
:1001D000814640241BE0284641464746224600F01F
:1001E00041F853465A46C01A914110D31146184659
:1001F000224600F028F82D1A67EB01084F462246E8
:100200000120002100F01FF817EB00094E41201ECD
:10021000A4F10104DFDC484631462A464346BDE8E6
:10022000F09FD2B201E000F8012B491EFBD27047CB
:100230000022F6E710B513460A4604461946FFF7B2
:10024000F0FF204610BD202A04DB203A00FA02F11C
:10025000002070479140C2F1200320FA03F31943B4
:1002600090407047202A04DB203A21FA02F0002156
:10027000704721FA02F3D040C2F1200291400843B6
:1002800019467047064C074D06E0E06840F0010350
:1002900094E8070098471034AC42F6D3FFF778FF94
:1002A0000826000828260008464910B54A6822F4A6
:1002B00040324A604A6843681A434A6001684A68A3
:1002C00022F480724A6001684A68036942EA0322A4
:1002D0004A6001684A6822F040724A6001684A68D0
:1002E00083681A434A6001688A6822F400628A605F
:1002F00001688A68C3681A438A60816A6FF0706215
:10030000D14201688A6822F070628A6001688A6856
:100310000CD0836A1A438A6001688A6822F04052CE
:100320008A6001688A68C36A1A4301E022F0405279
:100330008A6001688A6822F002028A6001688A681D
:10034000037E42EA43028A6090F820100029016887
:100350004A680FD042F400624A6001684A6822F499
:1003600060424A6001684A68174C436A04EB4333B1
:100370001A4301E022F400624A600168CA6A22F46A
:100380007002CA620168CA6A838B104C04EB035383
:100390001A43CA6201688A6822F400728A6001689E
:1003A0008A6890F8303042EA43228A6001688A689D
:1003B00022F480628A6001688A68406942EA80208B
:1003C000886010BD0023014000E0FFFF0000F0FF47
:1003D000FEE70000014800F036B90000A000002050
:1003E000014800F030B90000A0000020014800F0F2
:1003F0002AB90000A00000207047102000F094BB34
:100400004FF4807000F090BB7047000078B5002476
:10041000009490F83C20012A19D0012280F83C2059
:100420000A6807230568092A13D9EE680A3A02EB1D
:10043000420293409E43EE600B788A680A3B03EBCE
:1004400043039A400368DD682A43DA6010E0022023
:1004500078BD2E6902EB420293409E432E610B78D9
:100460008A6803EB43039A4003681D692A431A61B3
:100470004A681F23072A13D205686E6B521E02EBCF
:10048000820293409E436E630B790A885B1E92B290
:1004900003EB83039A4003685D6B2A435A6327E0AA
:1004A00005680D2A12D22E6BD21F02EB82029340F6
:1004B0009E432E630B790A88DB1F92B203EB830302
:1004C0009A4003681D6B2A431A6311E0EE6A0D3AE5
:1004D00002EB820293409E43EE620B790A880D3B49
:1004E00092B203EB83039A400368DD6A2A43DA621F
:1004F000164B0568144A9D4206D10D68122D03D192
:10050000556845F48005556005689D4218D10B6813
:10051000102B01D0112B13D1536843F40003536007
:10052000096810290CD10A490A4A0968B1FBF2F19D
:1005300001EB8101490000E0491E00910029FBD137
:1005400080F83C40002078BD00230140002001409D
:100550000C00002040420F0070B504004FF0000571
:1005600003D0206C002610B107E0012070BD2046AA
:1005700000F01CF8666484F83C60206CC00610D45F
:10058000206C20F4885040F0020020642046FFF7E1
:100590008BFE6664206C20F0020040F001002064B5
:1005A00000E0012584F83C60284670BD30B587B076
:1005B000044614216846FFF73BFE1E4A24681C4D82
:1005C00000231C48143A0321AC4215D1046844F4BA
:1005D00080740460006800F480700590106840F03A
:1005E000020010601068009100F002000590CDE953
:1005F00001136946104817E0104DAC4216D104684B
:1006000044F480640460006800F480600590106821
:1006100040F0010010601068009100F001000590AA
:10062000CDE901136946064800F08AFA07B030BDEB
:1006300000200140443802400004024000220140F2
:100640000000024070472DE9F05F05460068002475
:100650004669D0F804908768D0F80CB0D0F810A0A4
:10066000D0F81880F10748D0F90714D00121816033
:10067000B80703D5284600F0C5F90CE0780702D585
:100680004FF4006407E0380702D54FF4805402E0CD
:10069000284600F0B6F9F80516D529684FF48070A1
:1006A0008860B80503D5284600F0AEF90CE078055F
:1006B00002D544F4005407E0380502D544F48044E0
:1006C00002E0284600F09FF9F80316D529684FF498
:1006D00080308860B80303D5284600F097F90CE015
:1006E000780302D544F4004407E0380302D544F40B
:1006F000803402E0284600F088F9300707D55FEA29
:10070000CB6004D52968102044F40074C8607007D9
:100710004FF0080707D55FEA0B7004D52868C7605B
:10072000284600F069F9B00706D52868C068800738
:1007300002D0284600F061F9700607D55FEACA606A
:1007400004D52968102044F480640861B00607D5F8
:100750005FEA0A7004D528680761284600F04EF960
:10076000F00606D528680069800702D0284600F008
:1007700046F9B00308D55FEAC96005D5296810209D
:100780004860284600F03CF9F00307D55FEA09709D
:1007900004D528684760284600F039F9300446D56A
:1007A0005FEA497040D5F00504D55FEAC87001D012
:1007B00044F00104B00504D55FEA887001D544F027
:1007C0000204700504D55FEA487001D544F00404C2
:1007D000300529D518F0700F26D008F07000402899
:1007E00015D006DC102809D020280AD0302816D1D0
:1007F0000AE050280ED0602811D10EE044F0080421
:100800000DE044F010040AE044F0200407E044F056
:10081000400404E044F0800401E044F4807428685B
:10082000816921F070018161296804204860002CF1
:1008300005D0686A204368622846FFF703FFBDE8D9
:10084000F09F70B5040003D094F8200010B104E0CC
:10085000012070BD204600F081F82068016821F079
:100860000201016000F050FA0546052604E000F0A0
:100870004BFA401B0A2811D8206840688007F6D43C
:100880002068016841F00101016000F03DFA054671
:100890000BE000F039FA401B0A2806D9606A40F4E0
:1008A0000030606284F82060D2E720684068C007AA
:1008B000EFD0207E0128206801683DD021F0800122
:1008C0000160607E01282068016838D021F0400175
:1008D0000160A07E01282068016833D021F020014A
:1008E0000160E07E0128206801682ED041F01001EF
:1008F0000160207F01282068016829D021F00801CB
:100900000160607F01282068016824D021F0040183
:100910000160D4E902010843D4E9041211430843F9
:100920006168491E08432168C86100206062012097
:1009300084F82000002070BD41F08001C0E741F044
:100940004001C5E741F02001CAE721F01001CFE7DF
:1009500041F00801D4E741F00401D9E710B586B0B1
:10096000044614216846FFF763FC2049206888424A
:1009700039D11F480021026842F00072026000680D
:1009800000F0007005901A481038026842F0010229
:100990000260006800F0010005904FF4C050009024
:1009A0000220CDE90101032003900920049069464B
:1009B000104800F0C5F800220221142000F014FABB
:1009C000142000F003FA00220221152000F00CFA96
:1009D000152000F0FBF900220221162000F004FA95
:1009E000162000F0F3F906B010BD000000640040CE
:1009F000403802400000024070477047704770471F
:100A0000704770477047704770477047704770472E
:100A100070B54379012B1AD0012646710223037168
:100A200005682C6840F6FE7393409C43D1E9003181
:100A30000B43934023432B6001680B68C024944010
:100A4000A3430B60067100214171084670BD02206E
:100A500070BD70B5040003D02079002510B105E009
:100A6000012070BD6571204600F008F80220207159
:100A7000256101202071002070BD000010B586B0F6
:100A8000044614216846FFF7D3FB114920688842C9
:100A90001CD110480021026842F000520260006838
:100AA00000F0005005900B481038026842F0010237
:100AB0000260006800F001000590202000900320F3
:100AC000CDE901016946044800F03AF806B010BDCE
:100AD00000740040403802400000024090F8351099
:100AE000022903D08021416501207047052180F84B
:100AF00035100068016821F0010101600020704795
:100B000070B5044600F000F90546601C02D00448A8
:100B10000078044400F0F8F8401BA042FAD370BDFE
:100B20000000002070470000044910B50A68024226
:100B300002D00860FFF7F6FF10BD0000143C014032
:100B40002DE9F84FDFF87CB100224FF001084FF09B
:100B5000030A4FF00F090BF1040E00BF0B6808FAEF
:100B600002F42340A3426ED14D68022D01D0122D14
:100B70000ED1D50800EB850CDCF820505607F70E97
:100B800009FA07F6B5430E69BE402E43CCF8206043
:100B9000066855000F790AFA05FC07F0030726EAF4
:100BA0000C06AF40374307604E68012E05D0022E79
:100BB00003D0112E01D0122E0ED18668CF6826EAFE
:100BC0000C06AF40374387604668A6430C79C4F3F0
:100BD0000014944034434460C6688C6826EA0C06CE
:100BE000AC403443C4604C68E40065D5364C25689D
:100BF00045F480452560246822F0030504F4804410
:100C00000094324C2E19D6F8084895072F0F09FA90
:100C100007F5AC432E4DA84201D1002524E02D4D0F
:100C2000A84201D101251FE02B4DA84201D1022588
:100C30001AE02A4DA84201D1032515E0284DA8420B
:100C400002D1042510E037E0264DA84201D1052548
:100C50000AE0254DA84201D1062505E0234DA84212
:100C600001D1072500E00825BD402543C6F80858F6
:100C7000DBF800405D464E689C43F60300D51C43FC
:100C80002C60DEF8004075464E689C43B60300D5E4
:100C90001C432C600B4D08352C684E689C43F602B3
:100CA00000D51C432C60074D0C352C684E689C43C6
:100CB000B60200D51C432C60521C102AFFF44EAF24
:100CC000BDE8F88F003C014044380240003001404C
:100CD000000002400004024000080240000C0240F4
:100CE000001002400014024000180240001C0240A4
:100CF000426931EA020200D10904816170470AB1F8
:100D0000816170470904FBE7014880687047000073
:100D10000000002002488168027811448160704719
:100D2000000000200B4810B5016841F4007101601B
:100D3000016841F480610160016841F480710160E3
:100D4000032000F071F8002000F006F800F024F80D
:100D5000002010BD003C024070B50D4D04464FF41C
:100D60007A712878B1FBF0F00A490968B1FBF0F01C
:100D700000F0E2FA48B9102C07D200222146501E9A
:100D800000F032F800206C6070BD012070BD0000E2
:100D9000000000200C0000200B4882B0016841F4E4
:100DA00080410160006800F4804000900648001F08
:100DB000016841F080510160006800F080500090AF
:100DC000052002B000F030B844380240002809DBAA
:100DD00000F01F02012191404009800000F1E02055
:100DE000C0F8001170470000F0B40E4B1B680C46B1
:100DF000C3F30223C3F10705042D00D90425191DEF
:100E0000072901D2002300E0DB1E012606FA05F1C6
:100E1000491E214099409E40761E16403143F0BC49
:100E200001F09FBB0CED00E0064900F007020868E6
:100E30004FF6FF03184040EA0220034A10430860BF
:100E4000704700000CED00E00000FA052DE9F047C6
:100E50000E46050065D0DFF81481D8F80000F7B21F
:100E600000F00F00B04207D288F80070D8F80000F8
:100E700000F00F00B04254D128683D4C810712D5D4
:100E8000400703D5206840F4E05020602878000730
:100E900003D5206840F4604020602068A96820F0F5
:100EA000F000084320602878C0072DD030496868DA
:100EB0000839012812D0022813D0032811D009685C
:100EC000890700292DDA216821F0030101432160FF
:100ED000FFF71AFF814641F2883A0EE0096889035C
:100EE000EFE709688901ECE7FFF70EFFA0EB0901C6
:100EF000514502D90320BDE8F0872068696800F0F9
:100F00000C00B0EB810FEFD1D8F80010404601F093
:100F10000F01B14207D90770006800F00F00B0421E
:100F200001D00120E7E72878400705D52068E96867
:100F300020F4E050084320602878000706D5206898
:100F4000296920F4604040EAC100206000F036F8D2
:100F50002168084AC1F30311515CC8400649086082
:100F60000020FFF7F9FE0020C5E70000003C02402A
:100F700008380240F02500080C000020044805490C
:100F800000680968044AC1F38221515CC840704777
:100F90000C000020083802400026000804480549DB
:100FA00000680968044AC1F34231515CC840704787
:100FB0000C0000200838024000260008154810B533
:100FC000006810F00C02144813D04110042A0FD00E
:100FD000082A0ED10F4C241F2268236802F03F021A
:100FE0005B0207D52068C0F38810A0FB010106E072
:100FF000084610BD2168C1F38811A1FB0001002340
:10100000FFF7DEF82168C1F30141491C4900B0FB3C
:10101000F1F010BD083802400024F4002DE9F84F2B
:10102000050076D02878DFF8F8B2BE4CC00749D06A
:10103000DBF800105846C1F38101012908D000688F
:10104000C0F3810002280AD1201D0068400206D5A5
:101050002068800336D568680028E2D032E06868EE
:10106000B0F5803F10D0B0F5A02F206810D020F44C
:1010700080302060206820F4802020606868A0B163
:10108000FFF742FE06460CE0206840F48030F4E7AB
:1010900040F480202060F7E7FFF736FE801B6428CD
:1010A00073D820688003F7D50CE0FFF72DFE0646C5
:1010B00005E000BFFFF728FE801B6428F0D82068F9
:1010C0008003F7D42878DFF8608280074FF00009AA
:1010D0003ED5DBF80010584611F00C0F09D000681F
:1010E000C0F3810002280BD18D48001F0068400228
:1010F00006D42068800715D5E868012809D111E0D9
:10110000E868B8B10120C8F80000FFF7FDFD064609
:1011100005E002E1FFF7F8FD801B0228C0D8206837
:101120008007F7D52068296920F0F80040EAC1005F
:1011300020600DE0C8F80090FFF7E6FD064604E0E9
:10114000FFF7E2FD801B02281FD820688007F7D434
:101150002878000722D5724E744869696C3671B1DF
:1011600001210160FFF7D0FD074604E0FFF7CCFD49
:10117000C01B022809D830688007F7D50EE0C0F8F8
:101180000090FFF7C1FD074605E083E0FFF7BCFDD7
:10119000C01B02287ED830688007F7D42878400723
:1011A00068D5DFF87CA100270AF1380ADAF80000D8
:1011B000C0000BD4DAF8001041F08051CAF80010DA
:1011C000DAF80000012700F080500090584E306897
:1011D000C00510D4306840F480703060FFF794FD93
:1011E000009005E0FFF790FD0099401A022851D8C1
:1011F0003068C005F6D54A4EA868683601280FD079
:101200000528306810D020F001003060306820F0F0
:1012100004003060A868B8B1FFF776FD00900FE0D9
:10122000306840F00100F4E740F004003060F7E778
:10123000FFF76AFD0099411A41F28830814264D873
:1012400030688007F4D50EE0FFF75EFD009007E000
:10125000FFF75AFD0099411A41F28830814254D873
:1012600030688007F4D42FB1DAF8001021F08051F3
:10127000CAF80010A869C0B3DBF80010C1F38101FF
:1012800002294AD00228484607D0C8F86000FFF774
:101290003BFD00E039E005463AE04746C8F860000B
:1012A000FFF732FD064604E0FFF72EFD801B022803
:1012B0002BD820688001F7D4D5E907010843A96A33
:1012C0001C4A490802EB01416A6A41EA821108435B
:1012D00095F82C1040EA01611148001F01600120BF
:1012E0003866FFF711FD054605E014E0FFF70CFD39
:1012F000401B022809D820688001F7D50BE000BF09
:10130000FFF702FD401B022802D90320BDE8F88F39
:1013100020688001F4D40020F8E70120F6E70000FF
:10132000083802400038024000004742800E474221
:10133000007000400000FFFF10B5401EB0F1807F3C
:1013400001D3012010BD4FF0E02460610F21601730
:1013500001F007F90020A06107202061002010BDE6
:101360007047704710B590F83C20012A22D0012226
:1013700080F83C20CA688C6822F4407222434C6892
:1013800022F4806222430C6822F4006222430C693A
:1013900022F4805222434C6922F400522243C9694C
:1013A000002322F480420A4301684A6480F83C30FA
:1013B000002010BD022010BD70B590F83C20012A1D
:1013C00019D0012400F83C4F0222427050F83C3CF6
:1013D0005A689D6822F070060A684968324325F011
:1013E000800529435A6050F83C2C916044700021DC
:1013F0000170084670BD022070BD10B5040003D016
:1014000094F83D0010B107E0012010BD002084F8E1
:101410003C00204600F00CF8022084F83D00211D1D
:10142000206800F087FD012084F83D00002010BDF9
:1014300008B500680B49884212D10B48016841F495
:10144000807101600068022200F480700090032126
:101450002D20FFF7C9FCBDE808402D20FFF7B6BCE2
:1014600008BD000000200040403802402DE9F04156
:101470000D46040003D094F83D0018B108E00120A7
:10148000BDE8F081002084F83C00204600F03AF8E6
:10149000022084F83D002068816844F207029143ED
:1014A0008160211D206800F045FD226890689169E7
:1014B000166A2B68AF69034340F20330814341EA67
:1014C0000721A868EF6908434FF6FC418843E968A3
:1014D00040EA0720014328692F6A000140EA0730EB
:1014E000084369686D6926F0AA0646EA051529438E
:1014F00093602268906120680162012084F83D00B9
:101500000020BDE710B586B0044614216846FEF7FA
:101510008FFE16492068884226D1154800210268AE
:1015200042F002020260006800F0020005901048DC
:101530001038026842F001020260006800F0010009
:101540000590C02000900220CDE90101CDE90310F3
:1015500069460848FFF7F4FA002201211D20FFF731
:1015600043FC1D20FFF732FC06B010BD0004004014
:101570004038024000000240704770B504460068E1
:1015800001694FF00005C943890715D4C168C943F3
:10159000890711D4E91E0161012020772068806944
:1015A0008007204602D0FFF7E7FF04E000F0C2F812
:1015B000204600F057F9257720680169C94349079B
:1015C00017D4C168C943490713D46FF004010161FE
:1015D000022020772068806910F4407F204602D0E6
:1015E000FFF7CAFF04E000F0A5F8204600F03AF942
:1015F000257720680169C943090716D4C168C94322
:10160000090712D46FF008010161042020772068D7
:10161000C0698007204602D0FFF7AEFF04E000F06B
:1016200089F8204600F01EF9257720680169C94332
:10163000C90617D4C168C943C90613D46FF0100195
:101640000161082020772068C06910F4407F20469F
:1016500002D0FFF791FF04E000F06CF8204600F0A4
:1016600001F9257720680169C943C90708D1C16814
:10167000C943C90704D1891E0161204600F0F3F86F
:1016800020680169C943090609D4C168C94309062C
:1016900005D46FF0800101612046FFF761FE2068EC
:1016A0000169C943490609D4C168C943490605D43B
:1016B0006FF040010161204600F0D6F82068016912
:1016C000C94389060BD4C168C943890607D46FF0A2
:1016D000200101612046BDE87040FFF742BE70BDA9
:1016E00010B586B0044614216846FEF7A1FD0E49E8
:1016F0002068884216D10D480021026842F001029C
:101700000260006800F0010005904FF44070009006
:101710000220CDE901010120CDE90310694604480A
:10172000FFF70EFA06B010BD00000140303802404D
:1017300000000240704770B5044690F83C000D462A
:1017400001280DD0012684F83C60022084F83D0079
:1017500042B1042A18D0082A2AD00C2A4DD139E0E7
:10176000022070BD206800F049FC2068816941F0CA
:10177000080181612068816921F00401816120688C
:1017800081692A69114311E0206800F067FC206834
:10179000816941F4006181612068816921F480617F
:1017A0008161206881692A6941EA0221816124E01E
:1017B000206800F089FC2068C16941F00801C1611E
:1017C0002068C16921F00401C1612068C1692A69EA
:1017D000114311E0206800F0ABFC2068C16941F4BE
:1017E0000061C1612068C16921F48061C161206824
:1017F000C1692A6941EA0221C16184F83D60002083
:1018000084F83C0070BD10B5040003D094F83D008E
:1018100010B107E0012010BD002084F83C002046F4
:1018200000F00CF8022084F83D00211D206800F033
:1018300081FB012084F83D00002010BD08B5006840
:101840000649884208D10648016841F0010101605B
:10185000006800F00100009008BD00000000014099
:1018600044380240704770477047704770B502684F
:1018700004461068D168536910F00F0F50D003F080
:10188000010501F4907635435DD0C20705D0CA0545
:1018900003D5E26B42F00102E263420705D5DA07A5
:1018A00003D0E26B42F00202E263820705D5DA0759
:1018B00003D0E26B42F00402E263020705D5DA07C7
:1018C00003D0E26B42F00802E263E26B002A33D0FD
:1018D000800604D5880602D5204600F067FC206803
:1018E0004069E16BC0F38010090700D428B320469B
:1018F00000F04EFC2068416949061AD5416921F083
:1019000040014161606BA0B11B490165606BFFF74D
:10191000E5F8002810D0606B016DBDE87040084705
:10192000830610D58B060ED52046BDE8704000F02A
:101930003DBC2046FFF799FF70BD2046FFF795FF9D
:101940000020E06370BD030606D50B0604D52046D3
:10195000BDE8704000F0CCBD4006F3D54806F1D597
:10196000D168204621F04001D160202184F839104F
:1019700000F073F870BD00008121000870B504000C
:1019800004D094F83900002510B106E0012070BDA4
:1019900084F83850204600F023F8242084F83900D9
:1019A0002068C16821F40051C160204600F04AFC63
:1019B0002068016921F4904101612068416921F0AA
:1019C0002A0141612068C16841F40051C160E563AA
:1019D000202084F8390084F83A00002070BD00000F
:1019E00010B586B0044614216846FEF721FC17495D
:1019F0002068884228D11648016841F4003101600E
:101A0000006800F40030059011481038016841F07A
:101A1000010101600068694600F0010005900C209A
:101A200000900220019001200290032003900720E3
:101A300004900848FFF784F8022211462620FFF799
:101A4000D3F92620FFF7C2F906B010BD00440040CC
:101A5000403802400000024070477047FEE7000037
:101A60007FB5002415480094019402941249039410
:101A700001604FF48031C0E901140461047680F8FC
:101A800020400F49C0E90A140125C561C46080F8EF
:101A900030404561FEF760FD08B1FEF7B5FC082057
:101AA000CDE90005694602940448FEF7AFFC002822
:101AB00001D0FEF7A9FC7FBD0020014010000020EE
:101AC0000100000F7FB50024154800940194029492
:101AD0001249039401604FF48031C0E9011404619C
:101AE000047680F820400F49C0E90A140125C56139
:101AF000C46080F830404561FEF72EFD08B1FEF766
:101B000083FCCDE90045694605480294FEF77EFC5A
:101B1000002801D0FEF778FC7FBD000000220140C4
:101B2000580000200100000F0D4810B50B4901605E
:101B30001021416000218160C16001614161017635
:101B400041768176C17601774177FEF77AFE0028EB
:101B500003D0BDE81040FEF757BC10BD0064004044
:101B6000A00000201CB500240C4900940A480194F0
:101B700008600846FEF76DFF08B1FEF745FC0094CB
:101B80001022694605480194FEF742FF002801D063
:101B9000FEF73AFC1CBD000000740040C8000020A5
:101BA000F0B587B014216846FEF742FB3B4800249D
:101BB000016841F080010160016801F08001059138
:101BC000016841F001010160016801F00101059126
:101BD000016841F004010160016801F00401059110
:101BE000016841F00201016000682D4E00F0020022
:101BF000059000224FF4D0513046FFF780F8294F6E
:101C0000012208213846FFF77AF810200090264874
:101C1000CDE9010469463046FEF792FFB015009009
:101C20002248CDE9010469463046FEF789FF0125C7
:101C30007015CDE9000569463046CDE90245FEF74D
:101C40007FFF4FF4C0500090CDE901546946304603
:101C50000394FEF775FF0820CDE900056946384674
:101C6000CDE90245FEF76CFF70208DE83100694632
:101C70003846FEF765FF002201210A20FFF7B4F87D
:101C80000A20FFF7A3F8002201211720FFF7ACF884
:101C90001720FFF79BF807B0F0BD00003038024076
:101CA0000008024000040240000011100000211052
:101CB0000B4810B509490160A721416000214FF48C
:101CC000FA72C0E9021201618161FFF796FB0028F8
:101CD00003D0BDE81040FEF797BB10BD00200040C8
:101CE0005C01002010B592B000240F941C216846BE
:101CF0001094FEF79DFA202107A8FEF799FA2448D0
:101D0000224901600321C0E901144FF47A71C0E94E
:101D1000031444618461FFF776FD08B1FEF774FB9C
:101D20000F940FA91A481094FFF746FB08B1FEF76D
:101D30006BFB6020CDE900040294039404940594A5
:101D40000022694612480694FFF7F5FC08B1FEF739
:101D50005BFB042269460E48FFF7EDFC08B1FEF775
:101D600053FB0794089409944FF400500A94CDE96A
:101D70000B4007A906480E94FFF7F4FA08B1FEF7E6
:101D800043FB0348FFF7ACFC12B010BD000001405C
:101D9000DC00002010B58CB024216846FEF748FA1C
:101DA00000241648099414490A9401600121C0E9ED
:101DB00001144FF6FF72C0E9032484610320CDE9CA
:101DC000000402910520CDE90340CDE90541CDE9AC
:101DD000074069460948FFF749FB08B1FEF714FBC5
:101DE000099409A905480A94FFF7E6FA002801D0EA
:101DF000FEF70AFB0CB010BD000400401C010020DF
:101E00000C4810B50A4901604FF4E13141600021EE
:101E100081600C22C160C0E904128161C161FFF7D9
:101E2000ADFD002803D0BDE81040FEF7EDBA10BDAF
:101E3000004400409C010020FEE770477047704757
:101E4000FEF768BF30B593B030216846FEF7F0F971
:101E500014210CA8FEF7ECF919480025016841F09F
:101E600080510160006800F08050119015480168B1
:101E700041F4804101600068022400F48040119028
:101E80000120039010200490009406940820CDE9CE
:101E90000750A820CDE9090404200B906846FFF7FD
:101EA000BDF80CA90F2081E831004FF4A0500F902D
:101EB000E002109005210CA8FEF7C8FF13B030BD5A
:101EC00040380240007000401048016841F4700141
:101ED00001600F48016841F0010101600C4A0021D6
:101EE0000832116002680B4B1A400260031D0A4A57
:101EF0001A60026822F48022026005480C300160FA
:101F000002495806803908607047000088ED00E0FB
:101F100000380240FFFFF6FE103000240148FFF7B2
:101F20002CBB00001C0100200148FFF726BB00006D
:101F30005C010020F0B50268254C264D264E274F47
:101F4000274B4FF0804CA04209D0604507D0A842F3
:101F500005D0B04203D0B84201D0984204D122F05B
:101F6000700E4A6842EA0E02A0421BD0604519D0AA
:101F7000A84217D0B04215D0B84213D0984211D021
:101F8000184DA8420ED0184DA8420BD0174DA842AC
:101F900008D0174DA84205D0164DA84202D0164DC4
:101FA000A84203D122F44075CA682A434D6922F041
:101FB00080022A4302608A68C2620A688262A04282
:101FC00001D0984201D10969016301214161F0BD4D
:101FD000000001400004004000080040000C0040E8
:101FE000000401400040014000440140004801401D
:101FF00000180040001C004000200040F0B5026ABC
:1020000022F001020262036A42688469124E24F0DF
:1020100073050C682C4323F002058B682B430D4D90
:10202000A84201D0B04205D123F00807CB683B435A
:1020300023F00403A84201D0B04205D14D6922F437
:10204000407215438A692A4342608461496841634A
:102050000362F0BD0000014000040140F0B5026AD7
:1020600022F010020262026A436884690D6824F457
:10207000E64444EA05248D6822F0200242EA051273
:102080000F4D104EA84201D0B04206D1CF6822F0C9
:10209000800242EA071222F04002A84201D0B04278
:1020A00007D14D6923F4406343EA85038D6943EA10
:1020B000850343608461496881630262F0BD00006A
:1020C0000000014000040140F0B5026A22F4807271
:1020D0000262026A4368C46922F4007224F0730544
:1020E0000C68124E2C438D6842EA05220E4DA84220
:1020F00001D0B04206D1CF6822F4006242EA072242
:1021000022F48062A84201D0B04207D14D6923F485
:10211000405343EA05138D6943EA05134360C461E4
:102120004968C1630262F0BD000001400004014043
:1021300030B5026A22F480520262046A4268C369BE
:102140000D6823F4E64343EA05238D6824F4005424
:1021500044EA0534084DA84202D0084DA84204D1F3
:102160004D6922F4804242EA85124260C3614968A7
:102170000164046230BD0000000001400004014021
:1021800010B5806B0021C185C184FFF76EFB10BDC7
:102190000168CA6822F49072CA6001684A6922F034
:1021A00001024A61202180F83A10704710B590F87A
:1021B0003A10222901D0022010BD8168B1F5805F5C
:1021C00011D00169002901681FD0496801F07F031F
:1021D000816A4A1C82620B70C18D491E0904090C78
:1021E000C18518D02BE00269816A002A0268526812
:1021F00005D0D2B20A80816A491C8162ECE7C2F341
:1022000008020A80816A891CF7E74A68816A4B1CC8
:1022100083620A70E0E70168CA6822F02002CA609F
:102220000168CA6822F48072CA6001684A6922F0B3
:1022300001024A61202180F83A10FFF70DFC0020CE
:1022400010BD00002DE9F041044600680169E26814
:1022500021F44051114301612169A068E2690843FA
:102260006169114322680843D16849F20C639943BC
:102270000143D16020684169A26921F44071114392
:102280004161E2696425B2F5004F97489749226899
:102290004FF032083FD08A4201D082427CD1FEF713
:1022A0007DFE00EBC00101EB001061688900B0FB0E
:1022B000F1F6FEF773FE00EBC00101EB0010616860
:1022C0008900B0FBF1F0B0FBF5F06FF01801484366
:1022D00006EB800108EB0110B0FBF5F000F0F00612
:1022E000FEF75CFE00EBC00101EB001061688900A5
:1022F000B0FBF1F0B0FBF5F006EB0016FEF74EFE7A
:1023000000EBC00101EB001061688900B0FBF1F740
:10231000FEF744FED2E08A4201D082423DD1FEF770
:102320003DFE00EBC00101EB001061684900B0FB0D
:10233000F1F0B0FBF5F00601FEF730FE00EBC00156
:1023400001EB001061684900B0FBF1F7FEF726FED3
:1023500000EBC00101EB001061684900B0FBF1F037
:10236000B0FBF5F06FF01801484307EB800108EB74
:10237000C100B0FBF5F000F0F80006EB4006FEF7F8
:102380000DFE00EBC00101EB001061684900B0FBDD
:10239000F1F7FEF703FE3CE055E0FEF7EFFD00EB42
:1023A000C00101EB001061684900B0FBF1F0B0FB27
:1023B000F5F00601FEF7E2FD00EBC00101EB0010B5
:1023C00061684900B0FBF1F7FEF7D8FD00EBC001F2
:1023D00001EB001061684900B0FBF1F0B0FBF5F0D3
:1023E0006FF01801484307EB800108EBC100B0FB18
:1023F000F5F000F0F80006EB4006FEF7BFFD00EB3D
:10240000C00101EB001061684900B0FBF1F7FEF775
:10241000B5FD00EBC00101EB001061684900B0FBA5
:10242000F1F0B0FBF5F06FF01801484307EB8001C5
:1024300008EBC100B0FBF5F000F007002168304464
:102440008860BDE8F081FEF799FD00EBC00101EB6B
:10245000001061688900B0FBF1F6FEF78FFD00EB1C
:10246000C00101EB001061688900B0FBF1F0B0FB26
:10247000F5F06FF01801484306EB800108EB0110FE
:10248000B0FBF5F000F0F006FEF778FD00EBC001C0
:1024900001EB001061688900B0FBF1F0B0FBF5F0D2
:1024A00006EB0016FEF76AFD00EBC00101EB001021
:1024B00061688900B0FBF1F7FEF760FD00EBC00139
:1024C00001EB001061688900B0FBF1F0B0FBF5F0A2
:1024D0006FF01801484307EB800108EB0110B0FBD7
:1024E000F5F000F00F00A9E70014014000100140D2
:1024F00090F83910212901D0022070478168B1F588
:10250000805F016A0BD04A1C026202680978516040
:10251000C18C491E0904090CC1840ED017E009883A
:102520000268C1F30801516001690029016A02D003
:10253000491C0162ECE7891CFBE70168CA6822F0CC
:102540008002CA600068C16841F04001C16000209B
:10255000704700000148FFF789B900009C01002086
:10256000FEE70907090E002804DB00F1E02080F8EF
:102570000014704700F00F0000F1E02080F8141DF7
:10258000704702E008C8121F08C1002AFAD170473C
:102590007047002001E001C1121F002AFBD17047E3
:1025A000FEF7C0FBFFF74EFCFFF7FAFAFFF758FA09
:1025B000FFF788FAFFF7B8FAFFF7D4FAFFF792FBB4
:1025C000FFF7E8FBFFF774FBFFF71AFC074C4FF42B
:1025D0000065A61429462046FEF78AFB31462046B0
:1025E000FEF786FBC820FEF78BFAF3E700080240EF
:1025F00000000000000000000102030406070809B3
:10260000000000000102030428260008000000204A
:102610001000000082250008382600081000002065
:10262000D005000092250008010000001000000005
:08263000000000000024F4008A
:040000050800018965
:00000001FF
